S02000006275696C642F72656C656173652F6E63702D756172742D68772E7333374F
S21400400000100020F94D0000A1880000A5880000DF
S214004010E3090300A9880000B1880000E309030053
S214004020E3090300E3090300E3090300E3090300CF
S214004030B5880000C0980300E3090300E309030005
S214004040E3090300E3090300E3090300414D000010
S214004050E3090300E3090300E3090300E30903009F
S214004060E3090300E309030071A60000F5D600008B
S214004070E3350300E3090300E3090300E309030053
S214004080E3090300E3090300E3090300E30903006F
S214004090E309030079550000E3090300E309030080
S2140040A0E3090300E3090300E3090300E30903004F
S2140040B0E3090300374D0300E3090300A96101008B
S2140040C03D4D0300394D03003D590100494D0300A5
S2140040D0414D03006D610100454D0300014601009E
S2140040E0E9610100E3090300E3090300E3090300B3
S2140040F0E3090300E3090300E3090300E3090300FF
S214004100E3090300E3090300E3090300E3090300EE
S214004110E3090300E3090300E3090300E3090300DE
S214004120E3090300E3090300E3090300E3090300CE
S214004130E3090300000000002DE9F04F93B0CDE93D
S2140041400A32DDE91C530E9353EC102BCDE908011F
S214004150104619468DED060B1E9E09F03FFF80B1F6
S214004160DDE906014FF0FF32C54B09F05FFF40B9AD
S214004170DDE906014FF0FF326FF4801309F038FFD7
S21400418070B1DDE908019DED060B0E9B1E96CDE98C
S2140041901C53DDE90A3213B0BDE8F04F00F088B9D1
S2140041A00022DDE90601002309F022FF002800F0C6
S2140041B03381DDE906A303F1004BCBF30A5016F476
S2140041C08063A0F2FF3008BF06250F9309F034FC89
S2140041D09BA3D3E9002309F099FC9BA3D3E9002312
S2140041E009F0DEFACBF31304894644F07F5180468B
S2140041F00022A44B504641F4401109F0CFFA94A394
S214004200D3E9002309F082FC02460B4640464946A5
S21400421009F0C6FA09F014FF044609F00DFC8EA357
S214004220D3E900238046894609F070FC0022964BAD
S21400423009F0B6FA09F004FF89A3D3E9002307467C
S2140042404946404609F062FC80463846894609F0F1
S214004250F3FB85A3D3E9002309F058FC02460B467E
S2140042604046494609F09AFA02460B46CDE90C2329
S21400427009F04CFCDDE90C238046894610461946B9
S21400428009F08EFA0022CDE91001804B40464946DF
S21400429009F066FD00227E4B09F082FA02460B46C4
S2140042A04046494609F05CFD00227A4B09F078FA50
S2140042B002460B464046494609F052FDDDE90C230E
S2140042C08046894600204FF0804109F067FA024692
S2140042D00B464046494609F063FA02460B46DDE9BE
S2140042E0100109F03DFD07F2FF3700226A4B09F086
S2140042F057FA00223B0509F009FC52465B46804609
S214004300894609F093FE002840F08980CDE90C89A3
S21400431004F16303C72B34BF0427052731051BD5DB
S21400432053A3D3E900235046594609F075FE0028EA
S2140043307FD051A3D3E900235046594609F058FED2
S214004340002876D00027A542C6BF2C1B04F1FF35F7
S21400435000253C4646F480660E9B9F422CBF4FF0DD
S2140043600008A3EB070816F0020903D0002F18BFB9
S2140043704FF000083CB1DDE90C235046594609F0E1
S214004380EFFC82468B46DDE906010022002309F099
S2140043902FFE10B10BF100439B46DDE9080126F421
S2140043A00063CDE90183DDE90A324BEC10AB0095E2
S2140043B000F07EF802465FB3DDE9091316F0200F21
S2140043C000F10105089E0CBF65204520B047DDE9D9
S2140043D008010523002205930A23002CCDE90232AA
S2140043E007F1FF374FEAD473B8BF64422A460193F9
S2140043F004970A9B00942EF0F7FF0246B9F1000FCF
S21400440006D00B9BC41A0B9B1A190E9BA34245D8C9
S214004410104613B0BDE8F08FDDE906ABCDE600220E
S214004420404649461A4B09F09BFC013CCDE90C017D
S2140044306EE7002D90D00F9B002B8DD0013D8BE7B3
S214004440FB799F501344D33FB3C8608B288AC63F7E
S21400445061436F63A787D23F71A379094F930A40E0
S2140044601655B5BBB16B0240EF39FAFE422EE63F59
S2140044702D431CEBE2361A3F0000000080842E41DC
S214004480FFFFEF7F0000F83F0000E03F00002C40F9
S21400449000002440000018400000F03F2020DDE926
S2140044A00913089DA8470134ADE700BF00000000CF
S2140044B02DE9F04F5BEC10AB97B0CDE90501DDE9D7
S2140044C02057CDE90723504652465B465946229E62
S2140044D009F084FD70B90323CDE902760193B04B51
S2140044E00093DDE90501DDE907232EF09DFE17B0F8
S2140044F0BDE8F08F4FF0FF326FF4801350465946F8
S21400450009F076FD28B10423CDE902760193A54B88
S214004510E6E74FF0FF3250465946A34B09F086FDBA
S21400452068B1A24A06F00403002B08BF0322A04B82
S2140045301CBF13460422CDE902760192D0E750460E
S21400454093A3D3E90023594609F070FD38B992A326
S214004550D3E900235046594609F04AFD68B1DDE923
S2140045600723DDE905014BEC10ABCDE9217620955C
S21400457017B0BDE8F04FFFF7DFBD0022002350461E
S214004580594609F035FD002800F09A805B465246F1
S2140045900020002109F002F9012382468B46099388
S2140045A016F4806400F08E80092D40F28E80002480
S2140045B030210EABA5F109020134202C03F8011BB3
S2140045C0A5EB040901D09442F6D15946504609F0AD
S2140045D037FD784B054603EBC90393ED007B8DED65
S2140045E00A7B09F029FA02460B465046594609F05E
S2140045F0D5F8DDE90A2309F089FA02460B46CDE92B
S2140046000C2309F045FD804609F006FA02460B46E3
S214004610DDE90C0109F0C2F802460B46CDE90C2391
S2140046200022654B09F002FD002851D008F1010870
S214004630404609F0F1F902460B46DDE90A0109F0A9
S214004640E1FC10B14FF000080135B9F1000F50D170
S214004650284609F0F1F902460B465046594609F03D
S2140046609DF80022544B8046894609F0C1FC30B1C3
S214004670002240464946504B09F0D8FC10B1E807E6
S21400468000D501350A210EAB1A19202C0AD095FB4D
S214004690F1F001FB1055303502F8015B0134054698
S2140046A00028F2D106F00302012A57D1002F55D078
S2140046B0099A12B916F00C0F00D0013F302245E0DF
S2140046C009906DE74FF006097FE7A94600247CE7CE
S2140046D00022DDE90C01384B09F08AFC0028B4D131
S2140046E0B8F1000F02D018F0010FAED008F10108A3
S2140046F0ABE70A210EAB2344202C0ED0B8FBF1F01A
S21400470001FB1082B8F1090F02F1300209F1FF39FE
S21400471004F1010403F8012B11D83021A1440EAA9C
S214004720202CAFD0A14504F101030AD11C4609F1A3
S21400473058030DEB03092E2309F8203CA2E7804618
S214004740DAE7A1541C46EBE71A550134A74205D90F
S214004750202CF9D1CDE902760194C1E6202CF9D0BF
S214004760099A3AB12D2104F158026A4402F8201C35
S2140047700134EFE7710704D504F158022B216A448F
S214004780F4E73207E6D504F1580220216A44EDE743
S2140047900000000065CDCD410000000065CDCDC114
S2140047A04FAE030053AE0300FFFFEF7F46AE03009D
S2140047B04BAE030058AE03000000E03F00000000D0
S2140047C070B58EB02C22002103A82FF078F8642351
S2140047D04FF002320893CDE905230B2301218DF813
S2140047E03430514B8DF810101B88D80700F1958097
S2140047F0084615F065FE0A224C4B4D491A704FF4D8
S21400480028734C48ADF8123011F064FD4A4C206015
S21400481020B940F25121494803F03EFF05212068A7
S2140048202FF025FD20B140F26121444803F034FF0B
S214004830206808F071FF424B206819682FF0C5FD0C
S2140048400C2516F063FD6843099016F05FFD68437B
S2140048500DEB0501079020680BF03CFE20B140F2FE
S2140048607621364803F018FF0022364920682FF0DC
S21400487037FE20B14FF41E71304803F00DFF40F2B2
S2140048800353314D314E2B80052396F90000AB7053
S2140048907F2801D115F072FF3378EB7016F036FDE5
S2140048A000EB80008000A88016F030FD0023C000DA
S2140048B04FF0FF31E880AB604FF0FF3018A3D3E92C
S2140048C0002315F0D3FF2249206830F0E2FA206872
S2140048D002A92FF0E4FD20B140F2B121174803F001
S2140048E0DBFE042220680DEB02012FF025FD0428D4
S2140048F004D04FF42D71114803F0CEFE01A901201B
S21400490031F039FD04F010F8012016F0E5FF2CF028
S21400491003FA17F019F815F057FE0EB070BD00BF79
S2140049200A0020FF420300006C6B0020046F00208A
S214004930E9A4010028130020D85E0020FACD030069
S21400494000110020126F0020CC5E002068160020A8
S21400495089A601000348044B834202D0034B03B1EF
S21400496018477047A8240020A82400200000000054
S214004970064B0749C91A891048BF0131491003D0B0
S214004980044B0BB101481847704700BFA82400200D
S214004990A82400200000000010B5064C237843B978
S2140049A0FFF7D8FF044B13B10448AFF30080012390
S2140049B0237010BD006C002000000000CCD6030061
S2140049C008B5054B1BB105490548AFF30080BDE8A7
S2140049D00840FFF7CDBF00BF00000000482A0020B7
S2140049E0CCD60300A3F5803A704700BF174B002BC8
S2140049F008BF134B9D46FFF7F5FF00218B460F4679
S214004A001348144A121A2EF05AFF0E4B002B00D0F1
S214004A1098470D4B002B00D098470020002104003B
S214004A200D000D48002802D00C48AFF3008009F0B6
S214004A30F1FC200029002EF0F9FE09F0D9FC00BF99
S214004A400000080000000000000000000010002029
S214004A50A8240020906F0020000000000000000046
S214004A60BFF34F8F0549064BCA6802F4E062134352
S214004A70CB60BFF34F8F00BFFDE700BF00ED00E047
S214004A800400FA0500239B6AB3F5804F03D2196829
S214004A90064A914203D000230370836070470122C8
S214004AA002709A689B694260F7E700BF07B0CD5E68
S214004AB073B5494B04461A781AB102221A7002B02E
S214004AC070BDCDE900220028F9D001261E702CF01A
S214004AD04BF8424D424B18600EF0B2FB2B785BB998
S214004AE000F084FD40B93F4808233F4A3F4900682C
S214004AF00AF04CFF00B92E703D4B5A68E2603D4A02
S214004B009A601A6E22605A6E6260D3F87021A260B4
S214004B101B6E5C0440D5384AD368D807FCD4374BA4
S214004B201A68531C3DD04FF480139340344A1366E2
S214004B300423334C23664FF4806323662BF020FF58
S214004B4001300ED02BF01CFF40F20113984208D023
S214004B504FF4804323664FF4004323661023C4F8C3
S214004B6070311023264C4FF0804223664FF40053DA
S214004B706846236601A9226663662BF0E9FE009B61
S214004B802366019B63662B78002B98D0164B1A6819
S214004B9022665B68636692E71A4AD368D907FCD434
S214004BA0BDE7194B1B78002BC2D1184B5A68144B23
S214004BB012B94FF480121A66154A526812B94FF4A9
S214004BC000121A66134B5B68002BB1D14FF48002BB
S214004BD00B4B1A66ACE700BF026C0020036C00208B
S214004BE0702A0020CC100020742A002000710800D3
S214004BF00080004455CEAC00000004409810002011
S214004C000090004400000450016C00200080055015
S214004C1000C005500000065038B5224D04462B78DB
S214004C20012B02D001232B7038BD0028FCD02BF0BE
S214004C30A7FE013009D02BF0A3FE40F201139842E4
S214004C4003D0194AD368DB07FCD42268174B1A66D0
S214004C5062685A66A268C3F87021E268D40744BF47
S214004C6000229A60124B1A68013213D1114A127848
S214004C7082B911494968C80748BF1A600F4A526886
S214004C80D10744BF01221A600D4A5268D20744BFBA
S214004C9002221A600EF0DCFA0A4B18682BF06AFF44
S214004CA00023C0E7026C002000000440008000449F
S214004CB098100020016C00200080055000C00550B0
S214004CC000000650702A002038B500239B6AB3F512
S214004CD0804F25D21A68144B9A4221D1134D2B7857
S214004CE013F0FD0402D00024204638BD1048FFF71C
S214004CF0DFFE08214FF480330E4A0F48C2F88011B9
S214004D00C36011600D4A1361A36ADB6998470446C5
S214004D100748FFF781FF002CE6D101232B70E2E75E
S214004D204FF48174E0E700BF07B0CD5E016C002051
S214004D30602A002000E100E000A00044009000444B
S214004D4013B5204B1B7803B9FEE700231E4CCDE9B4
S214004D5000336A4608231D4920680AF017FEF0B99A
S214004D601B4AD2F84031D2F840211F2B4FF00103E6
S214004D7010D9203A9340019A1A43019208236A46B2
S214004D80124920680AF0B8FD4FF00053114A1A6025
S214004D90FFF766FE9340009A1A430092EEE70E4B2A
S214004DA09842F1D10A4AD2F84031D2F840211F2B5E
S214004DB04FF0010385BF203A93409340019398BF7C
S214004DC00093DBE7026C0020CC1000200071080086
S214004DD0008000440B020FF00BE000F00348044A8A
S214004DE00449121A92102BF0FDBD00BFF0EA030032
S214004DF0F0EA0300906F002008B500F02FF8FFF7E8
S214004E00EDFF124B12498B4212D30020114B124970
S214004E108B4218D3FFF7EAFD186850F8224058680E
S214004E2040F82240013298688242F5D30C33EAE714
S214004E300022F8E71C6844F8220001325C68A242AF
S214004E40F8D30833E4E70022F8E700BFD4D603001F
S214004E50E0D60300E0D60300E0D603006FF00100C2
S214004E60104B114A10B59A60D3F888200F4942F4C7
S214004E707002C3F8882001F50052106641F2FF70F8
S214004E8050660220C3F8D000BFF34F8FBFF36F8F7A
S214004E9008244FF440330648C0F88041D3600460CD
S214004EA00B6110BD00ED00E00040000000800044F3
S214004EB000E100E0014B1868704700BFA01000201A
S214004EC0014B1860704700BFA0100020084B1B6FF6
S214004ED003F00703022B04D0032B05D0012B05D0CB
S214004EE0FEE7044B18687047034BFBE70348704720
S214004EF000800050A0100020A8100020002D3101D6
S214004F0008B5FFF7E3FF054B1B6FC3F3013301330F
S214004F10B0FBF3F0024B186008BD00BF00800050E5
S214004F209C1000200048704700B4C404014B186869
S214004F30704700BFA8100020054B1860054B1B6F7C
S214004F4003F00703032B01D1FFF7DABF704700BF5A
S214004F50A81000200080005000487047002D310146
S214004F60174B9868C0F304400C280AD8DFE800F016
S214004F700B0909090909072119091B1D1F001148FA
S214004F807047002070479B6803F04073B3F1807F42
S214004F9011D0B3F1007F10D00B4A002B08BF10468B
S214004FA070470A4870470A4870470A4870470A48D8
S214004FB070470A4870470A4870470A48704700BF5B
S214004FC00040015A405DC60000093D00C0EA2101CC
S214004FD080BA8C010048E801005A62020024F400FE
S214004FE080841E0040420F00014B1868704700BFC7
S214004FF0A410002008B5032101230422002001F09C
S21400500077F800202BF0CCFD0122244B0C20C3F8AF
S2140050104424234AD2F8803043F00303C2F8803099
S21400502000F050FD1F4B00F5D520D3F8F02000F21D
S214005030FC4042F00102C3F8F020D3F8FC2042F016
S2140050408072C3F8FC20184AA3F55D431A60174B1C
S2140050500222B0FBF3F0164B01381861C3F8F020BB
S2140050604FF48072C3F804234FF06043114A0020C7
S214005070C3F8B02F104AC3F8802ED3F8002E42F49F
S2140050808072C3F8002EFF2283F82020D3F8002E6B
S21400509022F48072C3F8002E08BD00BF00D0035073
S2140050A00080005000ED00E0FF030040F8590D00BE
S2140050B0000004E055CEACC5090001004FF0604387
S2140050C0D3F8802E30B5D20715D501240B4D844079
S2140050D0D5F8FC2042F08072C5F8FC20D3F8002EEC
S2140050E02243C3F8002E53F82020002AF0D003F8FD
S2140050F02010002030BD1120FCE700BF00ED00E0CE
S21400510010B5012243780178847830209A40054B08
S21400511000FB01331CB942F210015A5010BD41F297
S2140051201001FAE700C0035010B501224378017859
S214005130847830209A40054B00FB01331CB941F2BD
S21400514010015A5010BD42F21001FAE700C0035099
S2140051502DE9F04F9A46564B85B01B7806460F460B
S2140051601546DDF83C909DF844B0DDF85080002BE5
S21400517000F09780072A00F296800E9B002B00F026
S2140051809280B9F1000F00F08E80129BB3F5006F8D
S21400519000F38980012803D1109B002B00F0838048
S2140051A0444B03EB05131B7B002B7ED0424C102296
S2140051B0002168462EF083FB04EB45141022A7BBA3
S2140051C0394620462EF07BFB43F210036380BBF18A
S2140051D0000F03D1E37843F00303E370364A0E9BD7
S2140051E002EB451CCCE90193129B6901581E9DF801
S2140051F04C30C0F30A0003F003039B0643EA001E8C
S21400520053582E48012E00EA03004EEA0003CDF85C
S21400521000A0535017D0B8F1000F2ED19CF80230E2
S21400522068F304138CF8023027E0002120462EF0A5
S21400523046FB4FF444736380BBF1000FCED1E37896
S21400524043F03003C9E713230CF1100ECCF80C30F2
S2140052509CE80F008EE80F006FF00301DCF81C20BE
S214005260109B61F39F02012FCCF81C20CCF8143061
S21400527003D1CCF81890CCF8043000270D4A290149
S21400528002EB051342F80180159A28465A606946D3
S21400529022469F605E7300F0B7FF384605B0BDE853
S2140052A0F08F0748FAE70748F8E70748F6E700BF31
S2140052B0046C00207C2B00207C2A00200F80FFF34B
S2140052C0028000F0018000F0078000F038B5124B35
S2140052D005461B78DBB1E0B12BF046FC0F4A0023F5
S2140052E01146147B54B92B6001251A0101EB0313F8
S2140052F01D738C502BF03EFC204638BD0133082B26
S21400530002F11002EDD12BF035FC0548F5E7054813
S214005310F3E70548F1E700BF046C00207C2B002073
S214005320048000F0028000F0018000F038B52BF019
S2140053301BFC002305460B4A147B6CB90133082B73
S21400534002F11002F8D100F013FF074B28461C703C
S2140053502BF010FC204603E028462BF00BFC0348FD
S21400536038BD00BF7C2B0020046C0020058000F0B8
S2140053700D4B10B51B78044693B1072812D82BF0B6
S214005380F3FB0A4B03EB04131A7B2AB100241C73AD
S2140053902BF0F0FB204610BD2BF0ECFB0448FAE7A0
S2140053A00448F8E70448F6E7046C00207C2B00204D
S2140053B0068000F0028000F0018000F0154B13B567
S2140053C01868002301908DF804302BF0CDFB124BAB
S2140053D01C7824B12BF0CEFB104802B010BD012281
S2140053E01A702BF0C7FB0E4B01A81C731C7783F8B2
S2140053F02C4083F83C4083F84C4083F85C4083F8AC
S2140054006C4083F87C4008238DF8073000F0D2FE0D
S2140054102046E2E710990300046C0020038000F0A9
S2140054207C2B00200A4A08B512785AB107280BD8F8
S214005430084A02EB00131B7B43B1002100F0ACFED0
S214005440002008BD0448FCE70448FAE70448F8E7EB
S214005450046C00207C2B0020028000F0018000F00D
S214005460078000F00A4A08B512785AB107280BD808
S214005470084A02EB00131B7B43B1012100F08CFEAF
S214005480002008BD0448FCE70448FAE70448F8E7AB
S214005490046C00207C2B0020028000F0018000F0CD
S2140054A0078000F00A4A08B5127852B107280AD8D1
S2140054B0084A02EB00131B7B3BB100F0F1FE002014
S2140054C008BD0548FCE70548FAE70548F8E700BFC9
S2140054D0046C00207C2B0020028000F0018000F08D
S2140054E0078000F00D4B1B7893B1072812D889B1BE
S2140054F00B4B03EB00131B7B73B10A4B1A6D012396
S2140055008340134214BF0123002300200B70704712
S214005510054870470548704705487047046C0020EA
S2140055207C2B002000000450028000F0018000F078
S214005530078000F00B4A10B512780C4662B10728B7
S2140055400CD859B1084A02EB00131B7B43B100F09C
S214005550B9FE2070002010BD0448FCE70448FAE7B6
S2140055600448F8E7046C00207C2B0020028000F042
S214005570018000F0078000F0184B2DE9F0411F6D08
S2140055805B6D1F4000D5FEE701260025144CDFF8B2
S2140055905880374218D02368C8F85060A3B1A16875
S2140055A0284601316268A1609847637B012B0BD1C6
S2140055B050B90C4B03EB45131A7B60F341021A7388
S2140055C01A7F60F341021A770135082D4FEA460626
S2140055D004F11004DDD1BDE8F08100BF00000450E6
S2140055E07C2B00207C2A002000200450024B1968E7
S2140055F0024B18680AF0A6B8AC100020CC100020A9
S21400560070B59400224605460E4634F039F9431C20
S2140056100AD058B92246314628462EF026F90028E8
S214005620034808BF002070BD0248FCE70248FAE7BE
S21400563010E000F021E000F024E000F010B5044691
S21400564034F01AF9431C10D088B900F0E9FE23465E
S21400565020F003002044984201D1002010BD53F8EA
S214005660042B0132F7D00348F8E70348F6E703486F
S214005670F4E700BF0EE000F021E000F024E000F0C8
S21400568008B52BF066FA014B186008BDEC32002016
S214005690014B18682BF061BAEC32002041F67133EA
S2140056A0124A30B5D469124DD3639368A84204F405
S2140056B0803423F4401306D893600E4AD2F818328A
S2140056C023F002030AE043F4801393600A4B9842E7
S2140056D0F3D9084AD2F8183243F00203C2F8183257
S2140056E014B10022014BDA6330BD00BF0000035046
S2140056F0005A620200C0075080F0FA022E4B984211
S2140057004AD022D82D4B984240D014D82C4B9842E1
S21400571039D00AD82B4B984232D02B4B98422FD0F8
S2140057202A4B98422CD000207047294B9842FAD139
S214005730284B186F7047284B98422AD0274B984220
S214005740F1D1244BD3F880007047254B98422BD0DC
S21400575009D8244B984223D0234B9842E3D11D4BC3
S214005760D3F88C007047214B984221D003F5740380
S21400577003F510539842D6D1164BD3F898007047CD
S214005780144B986D7047134B586E7047114B586FFB
S2140057907047104B986F70470E4BD3F884007047D5
S2140057A00C4BD3F8880070470A4BD3F8900070472C
S2140057B0084BD3F8940070470048E8010024F40032
S2140057C0C0CF6A0080841E0000093D0040420F00E2
S2140057D0405DC6000080E00FC0EA210180BA8C015F
S2140057E0007E560380D54302006CDC020090D00396
S2140057F038B5134B0546D3F820010C4600F00700D9
S21400580004281AD8DFE800F003090D11150001235B
S21400581005B1286004B1236038BDFFF74BFB0423B5
S214005820F6E7FFF783FB0323F2E7FFF799FB052371
S214005830EEE7FFF791FB0223EAE700231846E7E7C7
S2140058400080005037B50C460021114B0191D3F86B
S2140058508031054603F00303022B0ED0032B11D034
S214005860012B03D101A8FFF7C3FF0D210DB1019B4A
S2140058702B6004B1216003B030BDFFF771FB05213A
S2140058800190F3E7FFF768FB02210190EEE700BF07
S2140058900080005038B5104B0546D3F840310C4612
S2140058A003F00303022B0BD0032B0DD0012B0FD1DB
S2140058B02BF0A5F8082305B1286004B1236038BD95
S2140058C0FFF792FB0723F6E72BF09CF80923F2E795
S2140058D001230020EFE700BF0080005038B5104BD2
S2140058E00546D3F860310C4603F00303022B0BD0B9
S2140058F0032B0DD0012B0FD12BF081F8082305B117
S214005900286004B1236038BDFFF76EFB0723F6E777
S2140059102BF078F80923F2E701230020EFE700BF19
S2140059200080005038B5144B0546D3F800020C46EC
S21400593000F0070004281BD8DFE800F003090D116B
S2140059401500012305B1286004B1236038BD2BF093
S21400595056F80823F6E7FFF747FB0723F2E72BF096
S21400596051F80923EEE7FFF7CBFA0C23800AE9E7A4
S21400597000231846E6E700BF0080005038B5144BF9
S2140059800546D3F808020C4600F0070004281BD88A
S214005990DFE800F003090D111500012305B12860AA
S2140059A004B1236038BD2BF02AF80823F6E7FFF78A
S2140059B01BFB0723F2E72BF025F80923EEE7FFF79A
S2140059C09FFA0C23800AE9E700231846E6E700BFA3
S2140059D00080005038B5104B0546D3F840320C46D0
S2140059E003F00303022B0BD0032B0DD0012B0FD19A
S2140059F02BF005F8082305B1286004B1236038BDF4
S214005A00FFF7F2FA0723F6E72AF0FCFF0923F2E78E
S214005A1000231846EFE700BF0080005038B5104B53
S214005A200546D3F800310C4603F00303022B0BD0D7
S214005A30032B0DD0012B0FD1FFF778FA032305B106
S214005A40286004B1236038BDFFF7CEFA0723F6E7D7
S214005A502AF0D3FF0623F2E701230020EFE700BF7A
S214005A600080005038B50C4605462BF072F8054B02
S214005A709A6A54402C4054409C62BDE838402BF053
S214005A806CB800BF00C00050032814D005D8012809
S214005A9005D0022809D0002005E00F28FBD1084BCE
S214005AA0186FC0F3013001307047054BD3F89000F3
S214005AB0C0F30460F7E7024B186FC0F38020F2E7EC
S214005AC0008000501FB500230193252817D8DFE873
S214005AD000F0131A1D272C363B51565B60656A781A
S214005AE0161A401616561A272C27361A5127783BB0
S214005AF03B3B3B2727275B60FFF7E8F901900198BF
S214005B0005B05DF804FBFFF7FBF9F7E7FFF7DEF9F2
S214005B1002460220FFF7B8FFB2FBF0F20192EEE772
S214005B20FFF7EEF902460320F4E7FFF7E9F902462D
S214005B300320FFF7A9FFB2FBF0F25208EEE70021C0
S214005B4001A8FFF77FFEDAE7002101A8FFF750FE65
S214005B50D5E702934FF0E0231B695B0705D5FFF7F7
S214005B60CFF90290029B0193C9E703A902A8FFF7A9
S214005B7091FEF7E7002101A8FFF78CFEBFE70021A2
S214005B8001A8FFF7ABFEBAE7002101A8FFF7CAFE9F
S214005B90B5E7002101A8FFF7F1FEB0E7002101A854
S214005BA0FFF73CFFABE7094BD3F8803003F0030365
S214005BB0022BA8D0032B01D000209FE7FFF7D0F9D7
S214005BC09CE7002101A8FFF705FF98E7008000503A
S214005BD008B50120FFF776FFBDE808400349884274
S214005BE094BF01210221032000F002B880F0FA02DF
S214005BF0032810B50C4627D004D8012804D0022864
S214005C0017D010BD0F28FCD12AF086FF2AF08CFF93
S214005C10124A013C136F23F4405343EA04331367DC
S214005C20FFF76EF90021FFF739FDBDE81040FFF7DA
S214005C30CFBF0A4A4C1ED2F8903023F0F85343EAFE
S214005C400463C2F89030DCE7044A4C1E136F23F45A
S214005C50806343EA84231367D3E700BF00800050C5
S214005C601FB500230193252821D8DFE800F0132074
S214005C702020202A2F454A4F54595E712020342078
S214005C80204A202020202A204520712F2F2F2F2029
S214005C9020204F54314B1B6F03F00703013B032BAF
S214005CA005D8DFE803F00C02080A042301930198E4
S214005CB005B05DF804FB0323F8E70623F6E70223A6
S214005CC0F4E7002001A9FFF7BDFDF0E7002001A9D9
S214005CD0FFF78EFDEBE702934FF0E0231B695B07AF
S214005CE005D5FFF70DF90B230393039BDEE703A906
S214005CF002A8FFF7CFFDF8E7002001A9FFF7CAFDCD
S214005D00D5E7002001A9FFF7E9FDD0E7002001A9AB
S214005D10FFF708FECBE7002001A9FFF72FFEC6E736
S214005D20002001A9FFF77AFEC1E70C4BD3F88030BC
S214005D3003F00303022B03D0032B05D00023B5E7A3
S214005D40FFF7DEF80B23B1E7FFF70AF90523ADE707
S214005D50002001A9FFF73EFEA9E700BF0080005023
S214005D6038B50546FFF7CAFC204B04465A68012A98
S214005D7004D11F494A609A699207FCD10020FFF7B8
S214005D806FFF042803D12AF0C7FE2AF0CDFE194A79
S214005D9024F0407395421FD0174A95421FD0174AE9
S214005DA0D16811F0060FFBD19068936091684B4064
S214005DB013F4F81F16D12846FFF782F80020FFF7E5
S214005DC04FFF042810D1FFF79BF80021FFF766FC71
S214005DD0BDE83840FFF7FCBE43F00073DFE743F052
S214005DE08073DCE79060E9E738BD00BF00C0015073
S214005DF000E0015040420F0080841E000000015069
S214005E00F8B504460020FFF72BFF032800F081803A
S214005E1045F60E0302213F4AC2F880303E4B996297
S214005E20012103F580539962936DD903FCD4D4E91C
S214005E3000131B0543EA0163E17B94F820500B43F3
S214005E40217BE77E43EA0143617B6D0143EA013330
S214005E50A17B43EA811313619169D4E904031B060D
S214005E6043EA806301F000410B43A17E94F82300CF
S214005E700B43217E43EA0143617E43EA012393619B
S214005E80136AE66923F00D0394F8221043EA8703A9
S214005E9066BB1362966A94F8213045EA031326F02F
S214005EA033052B4343F0010393621C4D194A936D4F
S214005EB035EA0303FBD10225174B9D62936D5B0009
S214005EC0FCD41369A56823F4700343EA05531361F1
S214005ED04FF00042104B9A6119B9022203F5805325
S214005EE09A6278B901220E4B9A620BE0334343F074
S214005EF008031362936A23F0330303432B4343EAF6
S214005F004103936294F824301BB1024B054AC3F850
S214005F108020F8BD00C0005000D0005003000140B3
S214005F2000E00050F1A7FFFF70B5184CFF28A66AE6
S214005F302AD8A36D13F4803F18BF0122144B18BF54
S214005F409A6202229A62A56D15F08045FBD1114A2D
S214005F50A36992F9002023F47F03024423F47F43CD
S214005F6082F3080243EA002343EA0243A361314670
S214005F700220FFF777FDA36DDB0303D53146012032
S214005F80FFF770FD284670BD2125FBE700C00050D6
S214005F9000D00050056C002070B50F4CA66AA36DAB
S214005FA013F4803F18BF01220C4B18BF9A620222DE
S214005FB09A62A36D5A00FCD431460220A569FFF709
S214005FC051FDA36DC5F30725DB0303D5314601203C
S214005FD0FFF748FD284670BD00C0005000D00050B6
S214005FE0014B93F900007047056C0020012312480E
S214005FF0124A816A9362836D03F00303032BFAD17E
S214006000022393620C4A936D5800FCD40C48936D9F
S21400601030EA0303FBD10122084B1A65A3F580532F
S2140060209A6D9207FCD49A6D9007FCD59A6D9207EC
S214006030FCD50320FFF716BD00C0005000D000506E
S21400604003000100014B1880704700BFEC150020CC
S214006050034B5868C0F30800003818BF012070478B
S21400606000ED00E00C4A10B51369044643F0040343
S214006070136103F085FE2AF080FD084B084AC3F83A
S214006080202430BF2AF07AFD03F09CFE1CB9BDE840
S2140060901040FEF735BF10BD00ED00E000E00350F5
S2140060A00000FFFF0A4A10B51369044643F00403D4
S2140060B01361084B084AC3F8202403F061FE30BF82
S2140060C003F080FE1CB9BDE81040FEF719BF10BDF6
S2140060D000ED00E000E003500000FFFF034A0179F6
S2140060E0D36E23F030030B43D36670470040005056
S2140060F0F8B504460D461F4616464AB101238B40A6
S2140061003021184A01FB0022F7B141F2100153502A
S21400611004EB4403072D4FF00F014FEA031316D884
S214006120A80006FA00F281400F4818442AF029FD1C
S2140061304EB9012330210B4AAB4001FB042277B154
S21400614041F210015350F8BD42F21001DFE7A5F10D
S2140061500800800006FA00F281400448E5E742F2B3
S2140061601001EFE700C0035004C003500CC00350FA
S2140061704FF40012064BC3F88020BFF34F8FBFF3D7
S2140061806F8F0022FF21034B5A6599625A60704751
S21400619000E100E000000450044A054B002908BF57
S2140061A01346012282401A60704700BF4010045018
S2140061B04020045030B501250178114B090644787B
S2140061C0C2785D60996081784FF4001041EA04411E
S2140061D09961FF2199620021996319644FF000418B
S2140061E059654FF0FF3103F5005319650549130152
S2140061F0DBB2C1F8800181F81533086030BD00BFFE
S2140062000000045000E100E0F8B50125C3B2DFF855
S21400621088C0D1F800E09D408F7ACB7A0C46097B87
S214006220CCF850500CF5005C4CF820E04FF0300EE7
S214006230184E1B050EFB006094F80DC043EA07439A
S21400624043EA415322F00302C0F860C0C365026708
S2140062502AF08AFC736D2B437365237A13B1336C73
S2140062602B433364637A13B1B36B2B43B363227946
S214006270A37943EA0243084A93616179E37943EAE2
S214006280014306498B61034B55639D64BDE8F840A6
S2140062902AF070BC00000450002004500010045087
S2140062A010B50124C0B284402AF05EFC044B5A6D3F
S2140062B022EA04025A659C62BDE810402AF05ABCE5
S2140062C00000045010B50124C0B284402AF04CFCF3
S2140062D0074BDA6A224208D15B6B9C430CBF012451
S2140062E000242AF047FC204610BD0024F9E700BF32
S2140062F00000045041F67132034BDA63012203F5C5
S2140063000053DA60704700BF0000035041F6713258
S2140063100121044BDA6303F50052D1600022DA63F0
S214006320704700BF00000350014BD3F8940070473D
S21400633000400050CB784A7810B55B010C7843EAF1
S21400634082030A79234343EA02130C22424302F1F2
S214006350B0421363012C02BF8A78024B43F8202018
S21400636010BD00BFD080035008B54FF0B0435A6848
S2140063706AB958B15B680BB12AF019FC01210D4BC4
S21400638059602AF014FC4FF0B043D96008BD5B6832
S2140063900BB12AF00CFC0028F0D12AF008FC4FF0D4
S2140063A0B0430222DA602AF002FC0122024B5A6055
S2140063B0ECE700BF00100058002000584FF0B04136
S2140063C04B6810B50BB12AF0F2FB01220B4BC478D8
S2140063D05A608378934043EA8403447823430479DD
S2140063E043EA0413447943EAC4038B60044B5A60BF
S2140063F00378C3F10203CB6010BD00BF0020005835
S21400640000100058054B5B69C3F38512827003F0D9
S2140064103F021B0B42700370704700BF00C007505E
S2140064200120034B9B680A3303F01F039840704714
S2140064300080E00F0D4B984208D1A3F50033C3F857
S2140064408411C36D43F08003C3657047084B9842C0
S21400645004D1A3F51033C3F89411F2E7054B984224
S21400646004BFA3F52033C3F8A411EAE70080055063
S21400647000C005500000065070B5054616461C467E
S21400648019B90320FFF71EFB0146402C1BD003D88A
S214006490DCB1202C1BD070BD602CFCD1042303FB88
S2140064A006F2530803EB4113B3FBF2F3094A203B11
S2140064B002EAC303AA6822F06002AA60AA6814432C
S2140064C0AC60EB61E7E70623E9E71023E7E708237C
S2140064D0E5E700BFF8FF7F00012200F580535A6011
S2140064E040F6AA6341F20502436100230D4983602A
S2140064F0C365C26000F500520361C361C364916462
S21400650009498365884203D103650023436506E095
S21400651006498842F8D001F580418842F4D001232C
S21400652053607047FFFF01000080055000C0055013
S21400653070B50D46FFF7D0FF012300F58056736057
S214006540AB7C04461BB1836843F080438360EB7CDE
S2140065501BB12046297DFFF76DFF2A8A6B7B2046FC
S2140065601343EA891343E3602B7BD5E90112FFF757
S21400657083FF6B7D1BB1A36843F48033A360AB7DC0
S2140065801BB1A36843F40043A360EB7D2A7E1B0780
S214006590120502F4E00203F0E0431343A365697EAC
S2140065A01F4A8B1E012B1F4B1DD8944217D002F595
S2140065B08042944215D002F5804294420CBF0222DB
S2140065C04FF0FF3203EB4213022041F2AC52032994
S2140065D0985020D10423F3652B78636170BD0022A8
S2140065E0F0E70122EEE7944211D00F4A944210D011
S2140065F002F5804294420CBF02224FF0FF3203EBBA
S2140066004213022042F2AC5201299850E1E70022E0
S214006610F5E70122F3E7042204F50053DA65DBE729
S2140066200080055000C0035000C0055038B5044631
S214006630054D2DF0DBFE0FCC0FC594E80F0085E866
S2140066400F00002038BD00BFF032002047F6FF7371
S2140066509A42F0B572D0022972D83A4B5B5C022B94
S2140066606ED8394DDF0005EBC304A17815F833303A
S214006670012938BF0121012B13D10025E078401AEB
S214006680A84202D80844C0B2F0BD431B6668A0EB1F
S214006690530336F913609642D4BF1D4603F1FF300C
S2140066A0EEE760680028EFD0B0F90040944204DBC3
S2140066B0B0F902409442B8BF144683883D44FF2B8D
S2140066C019BFC8224FF0280CB0F90620B0F908C050
S2140066D0A2EB04030CBF0126002693FBFCF3334415
S2140066E06E781BB29E4201DD002B01DA731E1BB2D0
S2140066F04FF47A7C01339BB2071D5D1E2DB24FEA24
S214006700C50E00EBC505EA88AD689E4214FB025232
S21400671022EAE27202F15C02B2FBFCF204DD37F818
S214006720335001339542E8D200EB0E03988890422E
S21400673028BF1046884238BF0846A4E7FF20A3E7D4
S2140067400020A1E735990300F03200200229F0B5B9
S21400675060D8314B595C02295CD8304B13F83100B5
S214006760012816D103EBC1039C78D878012C21466A
S21400677038BF0121904294BFC1EB0001C1EB02017A
S214006780001BCAB28242C8BF00225B6833F91200FF
S214006790F0BD002A3CD003EBC1035968002939D06C
S2140067A09878904202D3B1F90200F1E7DC78B1F9AB
S2140067B000009442ECD95C788B88013CA3F1FF067C
S2140067C0734201F10405E4B2734101F10C07DEB235
S2140067D0B44216D805EBC3034FF47A756A43B3F98F
S2140067E002405B68D21A04EBD47302EB630292FB9E
S2140067F0F4F29042CCDBB1F902009042C8DC10B251
S214006800C6E737F833C05E1C9445E3D33346DEE76D
S2140068100348BDE70348BBE735990300F032002084
S2140068200CFEFFFF0080FFFF08B50448FFF7FEFEE2
S214006830BDE8084001202DF0FFBD00BF0CAF0300EF
S2140068407FB51422002101A82DF039F8044B01A9C8
S2140068504FF0FF3002932DF02FFE07B05DF804FBDB
S214006860006A18002DE9F0418CB08846DDE9127602
S2140068701D460446002847D0002945D0002F43D0A7
S214006880002E41D013F00F033ED120482049A360CC
S214006890002A08BF0146E361C4E90013404609A97F
S2140068A02AF013FB68BB204609992AF09CF9294672
S2140068B020462AF098F9694640462AF0B4FB00BB09
S2140068C0694620462AF07BF9404603A92AF0B6FB23
S2140068D0B8B9204603A92AF072F906970127204680
S2140068E045F0005506A9079708952AF068F920464E
S2140068F009A909960A970B952AF06BF920462AF003
S21400690072FA0CB0BDE8F0812120FAE7000100041D
S214006910000101042DE9F04F97B0894690461F46C6
S2140069200546DDF880A0002800F0BB80002900F0B6
S214006930B8803AB1229B002B00F0B380239B002B3B
S21400694000F0AF80BAF1000F00F0AB80219B002B67
S21400695000F0A78067B13C680026229B4344029360
S214006960464507D307B13C60002017B0BDE8F08F5E
S2140069703C46F1E75CB1229B219A9B5D125D013497
S2140069805340239A04F00F0493550136E8E7A8EB2A
S214006990060BBBF10F0F58D9434B4846C5E90034E8
S2140069A0AC60EC6113A92AF090FA0028DDD12846E5
S2140069B013992BF00F0B2AF016F9594628462AF0A1
S2140069C012F9484604A92AF02EFB0028CDD1284605
S2140069D004A92AF0F4F8484607A92AF02FFB002855
S2140069E0C3D1284607A92AF0EAF8012322992F4A9C
S2140069F0CDF828A00B930C928A190D9228464BF0DE
S214006A0000520AA90E9303920F922AF0D8F828464D
S214006A100DA92AF0D4F8239B039A99190123109103
S214006A2011931292214A284610A9CDF84CA014932F
S214006A3015922AF0CEF8284613A92AF0CAF8284656
S214006A402AF0D1F95E4400288FD1229B03EB060B77
S214006A50239B1E44029B5B4501D1464680E7ACB9AA
S214006A60219B2246CDE900A3494610232846FFF77E
S214006A70F9FE00287FF479AF0AF1100212F8013D02
S214006A800133DBB213700BB95245F7D1219A1BF8CC
S214006A90013B125D0134534006F8013B04F00F043D
S214006AA0D8E7212061E700BF0303000410000020A0
S214006AB02DE9F04F97B0894615469A460446209F22
S214006AC0DDF88880DDF890B0269E002800F09D80D6
S214006AD0002900F09A80002E40F08A80002B00F0FB
S214006AE09480B8F1000F0AD0219B002B00F08D8017
S214006AF0002A40F09F80F10700F1878002E0002A1C
S214006B0040F08580FB1F062B7FD8524B0BEB05020F
S214006B109A427AD20023504A4846C4E90023A3602A
S214006B20E36113A92AF0D1F900285ED12046139913
S214006B302AF059F8204646EA07412AF054F841461A
S214006B4020462AF050F8294620462AF04CF84846B7
S214006B5001A92AF068FA002847D1204601A92AF0A0
S214006B602EF8484604A92AF069FA00283DD14FF0CD
S214006B700109204604A92AF022F8239B45F0005577
S214006B800793219BCDF82090204609950DA90A93DE
S214006B9047F0005748F00053CDF82C900C93CDF8F2
S214006BA034A0CDF838900F972AF009F820460AA9A5
S214006BB02AF005F8204607A92AF001F8259B20466A
S214006BC010A946F00056CDF840B0CDF84490129586
S214006BD01393CDF85090159629F0FBFF204613A985
S214006BE029F0F7FF20462AF0FEF817B0BDE8F08F30
S214006BF0259B53B1BAF1000F07D0B8F1000F01D0B2
S214006C00219B13B1B5B9022E20D12120EDE7239B9D
S214006C10002BFAD0BBF1000FF7D0C7F10F03DBB2A1
S214006C20032B3FF668AF0122DB0002FA03F3AB4208
S214006C30EBD9E8E7239B002BE7D0BBF1000FE4D0AD
S214006C40C7F10F03DBB2032BDDD8ECE7102E7FF67F
S214006C5052AFDAE700800120000005042DE9F04F6E
S214006C6099B0884615469B460446229FDDF89890C4
S214006C70289E60B159B1279B4BB1BBF1000F06D0DF
S214006C80249B0BB1239B13B11DB9022E13D12123D4
S214006C909AE0259B002BFAD0B9F1000FF7D0C7F188
S214006CA00F03DBB2032BF0D80122DB0002FA03F35A
S214006CB0AB42ECD9E9E7731E0F2BE8D816F0010AB1
S214006CC0E5D1FB1F062BE2D8414B09EB05029A42A1
S214006CD0DDD2404B4046C4E9003AC4F808A0C4F8E8
S214006CE01CA015A92AF0F1F8034600286CD120460E
S214006CF0159929F078FF204646EA074129F073FFE8
S214006D002046249929F06FFF2946204629F06BFF7C
S214006D10404603A92AF087F90346002854D12046A6
S214006D2003A929F04CFF404606A92AF087F9034636
S214006D30002849D14FF00108204606A929F03FFF58
S214006D40259B2046099345F00053CDF828800193F3
S214006D500B93239B0FA90C93249B47F0005743F0FB
S214006D600052CDF834800E92CDF83CB0CDF840807D
S214006D70119729F024FF20460CA929F020FF204671
S214006D8009A929F01CFF019B204612A9CDF84890BE
S214006D90CDF84C80149329F01CFF279B204615A99C
S214006DA046F000561593CDF85880179629F007FF41
S214006DB020462AF018F8034630B101902A4651467C
S214006DC048462CF07CFD019B184619B0BDE8F08FB4
S214006DD000800120000006047FB50E461D460446CE
S214006DE0F0B102B9E3B901230192029345F00053D2
S214006DF0039300230B4AA360C4E90023E361204603
S214006E0001A929F0DCFE3146204629F0ECFE20469A
S214006E10294629F0E8FE204629F0E5FF04B070BDBB
S214006E202120FBE70000094330B5048804F4E04362
S214006E30B3F5005F2ED1C4F30223042B2AD181F0D0
S214006E40AA6383F4807333F47E132AD081F0AA6396
S214006E5083F4007333F47E1323D00023144D21F4FF
S214006E607E11A9421AD1B4F5105F17D1418821F0DE
S214006E704000802802D0B1F5807F15D1191F0C295B
S214006E8012D8DB0710D4073A072A34BF00206FF069
S214006E90860030BD42F204039C42DED16FF08500CE
S214006EA0F7E7C1F30543D9E76FF08600F1E700BFC7
S214006EB0000140052DE9F04F9BB08146DDE92876BC
S214006EC01D468B46DDF8A880DDF8BCA0099241B1CE
S214006ED038B1249B2BB1269B0BB9279B0BB91FB946
S214006EE04EB16FF086047FE02EB1B8F1000FF8D0F7
S214006EF02B9B002BF5D02C9B002BF2D0BAF1000F69
S214006F00EFD02E9B002BECD02D9B002BE9D0B9F8B0
S214006F10003003F4E042B2F5005F69D1C3F3022209
S214006F20042A65D185F0AA6383F4807333F47E1354
S214006F3006D085F0AA6383F4007333F47E1360D121
S214006F40C5F3054329464846259ACAF80030FFF798
S214006F506BFF0446002847D1014620220AA82CF0E1
S214006F60AEFC2022214612A82CF0A9FC0AA829F083
S214006F704DFF002855D159464846099A12AB2AF0CB
S214006F80C6F8044600282FD12B9B9E424CD8DAF830
S214006F9000302E9A934247D8474508D2BB199845E9
S214006FA005D23946324640462CF06FFC4746204B09
S214006FB025F47E159D4226D1DAF800303246069337
S214006FC02D9B0397CDE90483279B12A90293269B4A
S214006FD00AA80193259B0093249BFFF769FD2128AF
S214006FE019D0D8B92C9B1E6020461BB0BDE8F08F88
S214006FF042F20402934204D185F0052383F4801301
S2140070009BE700239EE76FF0880400232C9A13600A
S214007010CAF80030E8E76FF08604F6E76FF09204EF
S214007020F3E76FF09204DFE76FF08904DCE700BF58
S214007030000140052DE9F04F99B08A46DDE9266546
S2140070409346984681462A9F28B96FF086042046C4
S21400705019B0BDE8F08F0029F7D0229B002BF4D0A2
S214007060249B13B9259B002BEFD10EB9002DECD134
S21400707017B92B9B002BE8D12C9B002BE5D0289B27
S214007080002BE2D041464846239AFFF7CDFE044641
S2140070900028DCD1202201460DEB02002CF00FFC6C
S2140070A02022214610A82CF00AFC08A829F0AEFEE3
S2140070B010B16FF09204CAE75A465146484610ABE4
S2140070C02AF025F804460028C1D12B9B9D422AD8D9
S2140070D0BE4208D273199F4205D231462A46384628
S2140070E02CF0D3FB3E46144B28F47E1898451DD151
S2140070F0299B2A460693289B0396CDE90473259B75
S21400710010A90293249B08A80193239B0093229B1B
S214007110FFF7A4FD212898D02C280AD00028C8D133
S2140071202C9B1D6093E76FF0890490E76FF088044E
S2140071308DE76FF094048AE700014005084B9842FB
S21400714002D0084B984207D10B88B3F5105F0CBFEE
S21400715000206FF0850070476FF08500704700BF15
S214007160004440040013C0042DE9F04F9946002364
S214007170A3B09346DDE92E74DDE93068CDE9063329
S214007180CDE90833CDE90A33CDE90C33DDF8C8A0E4
S2140071900490059129B96FF08605284623B0BDE80E
S2140071A0F08F002AF7D00FB9002CF4D12C9B13B91E
S2140071B02D9B002BEFD116B9B8F1000FEBD1BAF129
S2140071C0000FE8D048460499FFF7B8FF05460028A8
S2140071D0E3D10146202212A82CF071FB202229467A
S2140071E01AA82CF06CFB12A829F010FE002878D103
S2140071F0DDE904015A461AAB29F089FF0546002846
S214007200CBD11A9829F040FF05460028C5D114B9FD
S214007210CAF80000C1E7B7420AD23B199E4207D21D
S2140072204445B8D83946224630462CF02EFB374621
S2140072304E4B994558D003F54073994515D04C4BA5
S214007240994540F08C804445A5D814F00F02A2D191
S2140072502346CDE900761AA912A8FFF703FB0746D6
S214007260002834D1CAF8004097E700234445CDE90A
S2140072700E33CDE910338ED82D9B0D2B8BD10123E9
S2140072808DF838302C9B0DF1390203F10C0153F8C0
S214007290040B8B4242F8040BF9D11B7813700123C0
S2140072A08DF8473014F00F0933D10F2CDAD906AB1E
S2140072B001930EABCDE90276009324F00F02002373
S2140072C01AA912A8FFF726FB0746002843D0424615
S2140072D0002130462CF0F3FA0023012FCAF80030C4
S2140072E040D06FF0920558E744453FF654AF2D9BCB
S2140072F0102B7FF450AF2C9B0DF1380C03F1100EC1
S214007300624618685968083303C273459446F7D135
S214007310C8E724F00F033B440DF1280C03F1100ED0
S214007320624618685968083303C273459446F7D115
S2140073300F2CBCD824F00F03334403930AAB0293FC
S21400734006AB01930EAB00934A4600231AA912A877
S214007350FFF7E0FA83E7B9F1000F83D0EAE76FF0B2
S21400736085051AE76FF08B0517E700BF0010C0040D
S214007370004440042DE9F04F994600239FB0934601
S214007380DDE92865DDE92A788A46CDE90633CDE9C8
S2140073900833CDE90A33CDE90C33059029B96FF0EF
S2140073A0860420461FB0BDE8F08F002AF7D00EB93D
S2140073B0002DF4D117B9B8F1000FF0D12C9B002B9B
S2140073C0EDD048460599FFF7B9FE04460028E8D1F7
S2140073D0014620220EA82CF072FA2022214616A87A
S2140073E02CF06DFA0EA829F011FD002844D15A465B
S2140073F05146059816AB29F08AFE04460028D0D1DF
S214007400169829F041FE04460028CAD115B92C9BCF
S2140074101860C6E7BE420AD273199F4207D2454596
S214007420BDD831462A4638462CF02FFA3E46344B15
S214007430994549D003F54073994520D0314B99457D
S21400744054D1454555D82B07A9D12B460122CDE965
S214007450006716A90EA8FFF705FA2C9B06461D60C6
S21400746000289ED04246002138462CF028FA0023F9
S2140074702C9A012E13603FD06FF0920491E70D3DD9
S214007480454536D801238DF8283033460DF12902BC
S21400749006F10C0153F8040B8B4242F8040BF9D1A9
S2140074A01B780D3613704FF48073ADF8363006AB8C
S2140074B001930AAB00932A460023CDE9026716A97A
S2140074C00EA8FFF727FAC8E7103D454511D8334602
S2140074D00DF1280C06F1100E62461868596808333C
S2140074E003C273459446F7D11036E0E76FF0850483
S2140074F057E76FF0890454E76FF08B0451E700BF3D
S2140075000010C0040044400413B50024064A684630
S214007510536F43F00103536700948DF80440FEF761
S214007520DDFD204602B010BD0040005008B5024800
S214007530FEF716FC002008BD00B4C40430B58BB0BE
S2140075406C46184D0FCD0FC40FCD0FC495E8030041
S21400755084E80300144BD3F84C2112031DD5A3F581
S214007560FE431C884FF6FF739C4208BF8C248DF8A0
S2140075701940FEF735FD204480F308008DF818000A
S2140075800A48FDF7D9FC6846FEF73AFC4FF4FA7055
S214007590FEF758FD00200BB030BDD3F85041E4B2E2
S2140075A0E5E700BF389903000080E00F00F04902CD
S2140075B06FF00403502110B50A480B4C13F0800FEF
S2140075C003F1010207D123443D2A83F80013134632
S2140075D0F4D1002010BD03F00F03043B03441976DA
S2140075E01346EBE700ED00E000E100E010B50446CE
S2140075F029F0AFFA024B1C6029F0AFFA002010BD4C
S2140076001033002010B529F0A4FA034B1C6829F0AB
S214007610A4FA204610BD00BF1033002038B50C4633
S2140076201546014610B9FFF7EDFF01462B462246E8
S214007630034805F087FE0028D4BF3720002038BD59
S2140076400312030010B5002400F024F80348044B8E
S21400765084604360FFF7CAFF204610BD1433002045
S2140076606576000013B5064C23780093054B1B88FF
S21400767029F0E4FD10B923780133237002B010BD61
S214007680066C0020EE150020014B18800020704785
S214007690EE15002008B5074B1A6842B901220820EB
S2140076A01A6029F0B2F90449044802F095F900205E
S2140076B008BD00BF28330020E4100020203300203F
S2140076C030B51446054687B0104629F010FE6369AB
S2140076D0024683423CBFD4E903315B181B1A7BB1D8
S2140076E00F49049403910021CDE901310123009351
S2140076F02846D4E9001329F0C4F9002007B030BDAD
S2140077000122627694F82D20002AF6D084F83530CF
S2140077101321E369204698472046636A9847ECE7BA
S214007720C17600002DE9F04788B004460F4616469D
S214007730984629F019FA8146002E7AD0237E03F067
S214007740FF02002B00F0A280204629F0D0FD6569DC
S214007750A84205D1637ED4E9033213445D1B01E0E1
S214007760F9D9451BB54228BF354629F0FDF994F8EE
S2140077702D308246002B6DD12A46384661692CF0A2
S21400778067F863692E462B44636121E0037803F0B3
S214007790FD0111295BD1216B814205D1A3F11101B5
S2140077A04B424B4184F83430013E6369216B013211
S2140077B08B4203F1010308BF23636361954260694E
S2140077C0E4D1D4E90323216B1344994200D1226308
S2140077D00025D4E9032361691344994208BF626116
S2140077E0207A6576FDF71EFE204629F080FD636947
S2140077F0834232D1257694F82D30E568656103B171
S21400780025632046636A9847214B0494039300231C
S214007810029323692A460193012300936368216833
S214007820207A29F02EF9207AFDF71CFE504629F022
S214007830A1F94846C8F8006029F09CF9D8F800304D
S214007840002B0CBF1B20002008B0BDE8F08707F80F
S214007850013BAAE72E460022B0E70123207A2376D2
S2140078600DF11E01FDF766FE9DF81E30002BDAD0E6
S2140078700DF11F01207AFDF735FE9DF81F10002937
S214007880D1D12246207AFFF71BFFCCE71646D0E779
S214007890C1760000002807DB01234109034A00F0F7
S2140078A01F00834042F82130704700BF00E100E02F
S2140078B0002808DB01224309034900F01F0082402C
S2140078C0603341F82320704700E100E070B50446BD
S2140078D00568FFF797FE844202D10020FFF786FE78
S2140078E095F936603046FFF7E3FF002E0CDB0122E9
S2140078F01949730906F01F06B240203341F82320C9
S214007900BFF34F8FBFF36F8F95F937603046FFF7A1
S214007910CFFF002E0CDB01220F49730906F01F066D
S214007920B240203341F82320BFF34F8FBFF36F8F51
S214007930287AFDF7B7FD287AFDF71AFDFDF7F6FC65
S21400794000232846C4E90033C4E90433A360AB6AC5
S214007950BDE87040184700BF00E100E02DE9F043A5
S2140079600C461546064687B04022002120461F4694
S2140079702BF0A5FF95E8030000232A692376EB6821
S21400798084E80300C4E904232A7DE36084F82C20FD
S214007990AA7D2363012384F8343084F835300E9BA7
S2140079A084F82D2023620F9BE7616362109BA3621D
S2140079B02B7A84F836306B7A84F837302D4B346067
S2140079C073602D4BB3602D4B33612D4B73612D4B84
S2140079D0F360FDF7F3FC38B12B4B984204D010242B
S2140079E0204607B0BDE8F083002104F10800FDF74B
S2140079F06DFC07460028F2D14FF00108234B336296
S214007A00234B84F83C80B361224BF3619DF84830E9
S214007A1084F8390084F83B309DF84430204684F8DA
S214007A203A30697D84F8388029F071FC95F9099020
S214007A304846FFF73DFF4846FFF72CFF164B0494D9
S214007A40CDE902732369CDE900836368E2682168A3
S214007A50207A29F016F804460028C0D195F9085077
S214007A602846FFF725FF2846FFF714FF3046FFF7A6
S214007A70BDFDB5E75F13030025770000DD120300A8
S214007A80E3120300CD780000038000F0B712030075
S214007A900F130300E9120300C17600002DE9F04140
S214007AA04FF001081C46574B86B00293564B0C9D70
S214007AB00193564B174600930A46CDE9038829469C
S214007AC0534BFFF74BFF0646002840F09280236892
S214007AD004222B64237985F84430A17985F8461072
S214007AE0607985F84500237A85F84830E37985F88B
S214007AF04730A37A85F84A30637A85F84930237B85
S214007B0085F84C30E37A85F84B304346FEF7F0FABA
S214007B1043460222217AE079FEF7EAFA3E703946B9
S214007B202068FEF705FD1421A27B3A4B03EB4210BA
S214007B30C0F8AC1594F806C061792E3203EB4213F8
S214007B4041EA0C415960227AE37943EA0243C0F8DD
S214007B50BC3585F84D607B7E032B50D8DFE803F0FC
S214007B603A4D021D022385F84D3000230422217B66
S214007B70E07AFEF7BDFA41F2AC520221A37B5B012C
S214007B8003F1A04303F570339950217BE27A42EA71
S214007B90014241F2B8515A501CE0012785F84D3099
S214007BA002220023A17A607AFEF7A2FAA17A627A0C
S214007BB0A37B42EA014241F2B4515B0103F1A043C8
S214007BC003F570335A500422236803F58053DA65B0
S214007BD0002FCAD163792A6C85F84530A379052130
S214007BE085F84630D36C206843F00403D36429F04C
S214007BF020F8304606B0BDE8F0810027CEE7232601
S214007C00F7E700BF8D14030081140300111503006D
S214007C100515030000C0035010B51C46044B186839
S214007C202BF08FFC002820600CBF1B20002010BD0E
S214007C30EC10002013B5064C23780093112329F08E
S214007C40FDFA10B923780133237002B010BD00BFCF
S214007C50076C002010B5FFF71DFD0F4C20602BF0C1
S214007C607EFC20220D4901230D4805F0F1FB0D4B4B
S214007C7018600D4B204663600C4BA360FFF7B6FC04
S214007C8028F067FF01210446084601F02BFE204637
S214007C9028F063FF002010BD2C330020086C002065
S214007CA066990300EC100020357C0000197C00006B
S214007CB01A2812D8102814D940F28523A0F11102F0
S214007CC0D2B2D340DB070CD50122064B80F0200051
S214007CD01A70054B18707D2003E0A0F17D03012B80
S214007CE0F2D970472F6C00202E6C0020F8B50E4697
S214007CF01446204B00B3204A2049107000221A7008
S214007D0022700A704FF6FF721D4B1A801B4D2B789F
S214007D10EBB91B4F3046398829F0B7FC164A388035
S214007D201378013BDBB213706BB901232B7030461E
S214007D30BDE8F840FFF7BCBF1A78002AE6D01870F6
S214007D40104B1878F8BD237801332370EFE7012B2A
S214007D5005D102232B700A4B1888000AE8E7022B8D
S214007D6004D103232B70064B1878E1E7FF237E200F
S214007D702370E7E72F6C00202C6C00202D6C002071
S214007D80EE6000202E6C00202DE9F047394E884624
S214007D90337817465BB9384A1370384A1370384A36
S214007DA01370384A13704FF6FF72374B1A807D28CF
S214007DB050D02DD8182851D01A2852D0314B2E4DDD
S214007DC01A78DFF8BC9080EA020400221A702B783A
S214007DD0DF2B9CBF01332B702B78022B12D9DFF8D8
S214007DE0A8A099F80000BAF8001029F04EFC2B78ED
S214007DF0AAF80000DF2B9FBF99F80020023B88F806
S214007E0000203B701D4B1A781C7089F8002006E095
S214007E107E28D3D1184B1B781BB91A4A1370202022
S214007E2011E0FF2B1FD0184A1188154A1078134A04
S214007E30127802EB0022914217D1022B17D9E02BC1
S214007E4034BF00207A20A0F1200253425341337001
S214007E50BDE8F08720220B4B1A70E0E7FF22064BA6
S214007E60FAE77420EFE77720EDE77620EBE7792056
S214007E70E9E700BF306C00202B6C0020296C002046
S214007E80286C00202A6C0020EC60002008B529F041
S214007E90ADFB4FF6FF73002818BF0346014A138058
S214007EA008BD00BFF260002010B5074C208850B116
S214007EB029F09CFB2388C01A044B00B21B8898420A
S214007EC0B4BF0020012010BDF2600020F06000204A
S214007ED04FF07E624FF6FF732DE9F041B2F8467020
S214007EE0B2F84460154D9F4208BF4FF448679E4263
S214007EF008BF4FF4C8762C88DFF8448050B1640081
S214007F002C802B88BB4215D92F800023A8F8003080
S214007F10BDE8F081B8F80030002BF2D029F066FBFF
S214007F20B8F80030C4EBC404C01A80B204EB800476
S214007F30E408E5E7B34238BF2E80E6E7F0600020AD
S214007F40F260002008B529F051FB4FF07E634FF633
S214007F50FF72B3F85430934208BF4FF47A73034469
S214007F6013F47F6FC3F3071208BFFF22014B1A708A
S214007F7008BD00BF316C002010B5084C237843B113
S214007F8029F034FB2378C3EB10131B065CBF0023D9
S214007F9023702078B0FA80F0400910BD316C0020C4
S214007FA007B502F09BF96A4602F0FEF918B15221B5
S214007FB0034800F071FBDDE9000103B05DF804FB47
S214007FC07C99030008B502F0BDF818B17A21024882
S214007FD000F062FB002008BD7C99030008B500F0A5
S214007FE089FA0E4A536A43F470235362EFF3088308
S214007FF04FF0CD310A4A043B93420BD20222094B82
S2140080001A6700F0DDFCFFF7DDFFBDE80840064814
S214008010FEF70CBB43F80419EEE700BF00ED00E0E6
S21400802000000020004000500CAF030007B50422FB
S21400803000200DEB02012CF07FF9042804D040F25A
S2140080406711044800F028FB019800F06DFC03B0AF
S2140080505DF804FB7C9903001028034670B535D004
S21400806020D8032815D9002070BD032202231A4900
S2140080701A4D0C680021C8B28442F4D955F8200085
S21400808028B1067A9E4202D1467A9642ECD0013159
S214008090F1E7421E022A19D8DFE802F0021B16009A
S2140080A00022E3E7A0F12002032ADCD8213B022BC2
S2140080B0F6D801A252F823F0C5800000C98000005F
S2140080C06B8000000122D1E70222CFE700220323C3
S2140080D0CDE70122CBE700BFC4AE0300101100209D
S2140080E010B5FFF7B9FF044630B1037A022B03D16F
S2140080F003680BB11B6823B940F23321064800F031
S214008100CBFA23681B681B6C986900F44830A0F50E
S21400811000535842584110BD7C990300082310B5FF
S2140081200A0A41400648C9B201F00104490804B1F0
S2140081304140013B13F0FF03F6D181EA020010BD77
S2140081402083B8ED2DE9F8430025134C134EDFF8D5
S2140081505480134FDFF8509023780BB9BDE8F883AE
S21400816022464146002056F8043B29F053F8227870
S21400817023460134002AFAD15B7853B105F0030395
S214008180032B0CBF39464946002029F043F8013539
S214008190E2E73946F8E700BFE09E03000010002043
S2140081A04C9D0300BD990300BA99030040F60522D2
S2140081B06A4B2DE9F0411B8893420ED8B3F5206F29
S2140081C00DD840F20252934218D040F20172934208
S2140081D020D040F2015293420AD0BDE8F081A3F6C7
S2140081E002235F4C032B1ED8DFE803F0376396B2FA
S2140081F05C490020BDE8F04129F00CB800205A493F
S21400820029F008F8564B1A6C0020BDE8F041574993
S21400821029F000B8524A0020D2E92423BDE8F041F4
S214008220534928F0F7BF0020524928F0F3FF94F88E
S21400823068309E0703D500204F4928F0EBFF94F8DE
S2140082406B305D0603D500204C4928F0E3FF94F917
S2140082506B30002BC1DA4A49CBE70020494928F0A9
S214008260D9FF94F86430980704D00020226C3F4968
S21400827028F0D0FF94F96430002B04DA0020226F37
S214008280414928F0C7FF00250126404FDFF8088146
S214008290626E06FA05F3134207D057F825201378C6
S2140082A01BB14146002028F0B5FF0135082DEFD15F
S2140082B093E73749002028F0ADFF2C490020226CB8
S2140082C028F0A8FF94F86530590703D500203149F7
S2140082D028F0A0FF94F96530002B04DA0020226F06
S2140082E0294928F097FF0825284E2B4F636EEB4050
S2140082F0DA0707D556F8252013781BB13946002033
S21400830028F088FF0135102DF0D194F8640000287D
S2140083107FF463AF21496DE72149002028F07AFFFA
S2140083200020226C114928F075FF1025174E1A4FB1
S214008330636EEB40DB0707D556F8252013781BB194
S2140083403946002028F066FF01351A2DF0D144E7A3
S2140083500020144928F05EFF226C55E7F4600020E8
S21400836000100020C7990300059A0300369A030000
S214008370519A03006D9A0300869A0300C19A03007F
S214008380F59A0300329B0300589B0300E8A60300FF
S2140083907F9B0300979B0300769B0300DE9B0300F6
S2140083A00F9C0300299C03002DE9F04F424C85B03A
S2140083B0D4E90D32580748BF0026D4E9121B48BF3F
S2140083C0B046D4F83CA05FBFD4F850808B469246A7
S2140083D03A4E54BFDFF81091DFF8109113F0080FF3
S2140083E0374B384A18BF1A46B6EB08071FBF642338
S2140083F07D0803FB0B55B5FBF7F50CBF3D46ADB24C
S2140084004B4631490020CDE9016ACDF80080BFB265
S21400841028F000FF2B460020CDE900972B491FFAD5
S2140084208BF228F0F7FEB24501D8C24504D24A4680
S2140084300020274928F0EEFED4E91703184338D069
S2140084400020244928F0E6FE00250126224FDFF80A
S214008450A080E26D06FA05F3134207D057F82520F0
S21400846013781BB14146002028F0D4FE0135202D9C
S214008470EFD100250126194FDFF87480226E06FA28
S21400848005F3134207D057F8252013781BB1414651
S214008490002028F0BFFE01351D2DEFD10020104929
S2140084A028F0B8FE00200E4905B0BDE8F04F28F0D1
S2140084B0B1BE0C49F4E700BF0010002000100020F9
S2140084C0589C03005F9C0300679C0300999C030074
S2140084D0D39C0300F29C0300F4A5030074A60300DB
S2140084E04D9D0300269D0300539C03004B9C0300F8
S2140084F0229D030010B5FDF717FF044628F051FB38
S214008500E30721D401221046114600FA01F3234066
S21400851002F101021AD0214B33F811302049062B04
S21400852019D040F20722934212D14FF000524FF278
S2140085300F00548884420BD11088984208D14CF220
S2140085403C335380088010BD0021E4E7102ADBD1BD
S214008550134A138012E04FF000534FF20F02588870
S214008560904218D11B88B3F5406F28BF4FF4C06304
S2140085700B804CF23C324FF000535A80084B1A885E
S21400858040F201739A4201BF064B074AD2E9000146
S214008590C3E90001D7E74FF4C063E9E7C09E0300D4
S2140085A0F46000203833002090100020014B18881B
S2140085B0704700BFF4600020014B1888000A70471F
S2140085C0F4600020164B1888020A10F0FF001346CD
S2140085D004D1012A23D143F080007047072BFAD834
S2140085E001A252F823F000BF0D860000D7850000D8
S2140085F0098600001D8600001D860000118600000A
S2140086001586000019860000092070471846704736
S214008610032070470B2070470620704702207047E3
S214008620F4600020044B05481B881A0AB3F5406F17
S21400863038BF00EB82007047F4600020909E030075
S214008640044B1888044B020A53F82230C0B203EBDE
S21400865080007047F4600020609E030010B504465A
S21400866028F07EFA4FF000534FF20F021C805A801B
S214008670BFF35F8FBFF34F8F0549064BCA6802F4FE
S214008680E0621343CB60BFF34F8F00BFFDE700BF30
S21400869000ED00E00400FA0538B504460D460B462A
S2140086A002460749002028F0B5FD00F0BDF928F085
S2140086B057FA29462046BDE8384028F0F5BF00BFE7
S2140086C03C9D03006D4A2DE9F0416D4B55686D4C9D
S2140086D05D65516A99656C49D1F80002D865D1F894
S2140086E00412586B1966916A10F0040F5966D16A25
S2140086F04FF000009966116BD966516B1967D26B03
S214008700D8645A67D3E90E1218BF11465F4A9142E1
S2140087101A655DD301F12000A04259D88869C5F3D7
S21400872008051864CE69062D5E6455D1584DA842DA
S21400873052D3584DA8424FD205884DF64260854226
S2140087404AD11868C3F890005868C3F8940040F2FD
S2140087500170A242154604D22E680432B6F1CD3F0F
S214008760F7D00022C3E91E22C3E92022C3E9222251
S214008770641BDFF81CC1434DDFF818E19C648D4292
S2140087802DD8D3E91EC7D3E92065D3E922414FF09F
S214008790000E013AD2B2FF2A3CD1BEF1000F05D03E
S2140087A0C3E91EC7C3E92065C3E92241B3F85430C4
S2140087B0C3F308030C2B3BD8022B54D9DA1E092A24
S2140087C051D8DFE802F03157404350505050504DDA
S2140087D00021C3E910112D494FF42060B9E755F880
S2140087E0044D6445CBD37445C9D2E607C7D50026E9
S2140087F0294F57F8048FA045C1D00136062EF8D170
S21400880032B1013AD2B202F11E0643F82640B6E76C
S2140088100522F8E7E0464FF0010EBC4637462E46E6
S21400882025460C464146B4E740F60120BDE8F081F7
S2140088303B2B18D1194B9B6913F0020F40F20253E1
S21400884018BF1846F2E740F60320EFE740F2017241
S21400885040F60423B0F5206F14BF10461846E5E72F
S21400886040F60520E2E740F60722013B4B2B98BF77
S2140088701046DBE740F60220D8E700BF00ED00E038
S214008880001000200010002000E100E000000020A2
S2140088903441000060980300741000200080015AE4
S2140088A000F00CB800F00AB800F008B800F006B8FF
S2140088B000F004B800F002B800F000B872B61EF07F
S2140088C0080F09D01EF0040F0DD0DFF850E0AEE818
S2140088D0FF1F6FF002000CE0DFF840E0AEE8FF1F7D
S2140088E06FF00E0005E0DFF834E0AEE8FF1F6FF033
S2140088F006006946EFF309828EE8070086460848B8
S214008900084C854501D3A54501D384F30888FFF7B5
S214008910D9FE84F30888FFF7A1FE000000100020AF
S21400892040000020001000204BF6EF6283B2002BC0
S21400893008BF1346044A000C13804FF6CE2308BF28
S2140089401846024B18807047F2150020F0150020DC
S2140089500B4BB3F900201888002AB8BF80F06200DD
S21400896042001A80074AB2F9001013880029BCBFDB
S21400897083F4805383F00B035900118058407047EE
S214008980F2150020F015002008B501F0CBFE60B10E
S2140089900A4B0344072B0DD8072B0BD8DFE803F050
S2140089A00C060A080A0A0A04C12008BDC320FCE710
S2140089B0C420FAE7C520F8E7C220F6E7FF1FFF0F3E
S2140089C01FB50023CDF80930CDF80130CDF80530BD
S2140089D001238DF800300D238DF8093003230F4A4C
S2140089E08DF80A30D2F800320D4C23F0070343F01E
S2140089F0010369462046C2F8003228F04EF94FF4CB
S214008A0000610223074A04F50050C2F8841183610E
S214008A10516004F58054E36104B010BD008000503E
S214008A200080015A00E100E0014828F025B900BFA7
S214008A300080015A10B5094A137813F002040CD1CD
S214008A400749084809780078884206D0064863F047
S214008A507D03048005481370017010BD116D002061
S214008A60186D0020166D0020F2600020156D0020A5
S214008A70054B064A19881288914202BF0121044A12
S214008A80117000221A80704700610020FE600020EE
S214008A900F6D002007B50346009102223D200349D2
S214008AA02CF0A6FA03B05DF804FB00BF5DA7030038
S214008AB007B5064B02221B783D200093044981230C
S214008AC02CF096FA03B05DF804FB00BF1B6D002087
S214008AD05DA7030038B50C4D0C4C2A7823789A42D3
S214008AE000D138BD00210A482DF071FE094B1B88C5
S214008AF0834202BF0122084B1A702378013303F029
S214008B0007032370E9E700BF186D0020136D0020EF
S214008B10F8600020FE6000200F6D0020074B93F9E0
S214008B200030002B08DB064A137803F04101402989
S214008B3004BF43F005031370704700BF1B6D002091
S214008B40116D0020282307B5054A3D20CDE90032E7
S214008B500449702302222CF04BFA03B05DF804FBA4
S214008B603800E00F56A703007028034607B504D167
S214008B7003B05DF804EBFFF7E5BF074A3D20127827
S214008B8006490192064A1278009202222CF030FA28
S214008B9003B05DF804FB00BF106D00205CA7030067
S214008BA01B6D002008B50A4814F0C6F8094814F0F2
S214008BB0C3F8094814F0C0F8084814F0BDF808488F
S214008BC014F0BAF8BDE80840064814F0B5B800BF7F
S214008BD000610020FC600020FA600020F8600020A1
S214008BE0FE600020F660002008B5DC220021044864
S214008BF02DF049FD0122034B1880034B1A7008BD67
S214008C00336C0020FE6000200F6D002030B585B06C
S214008C10FFF7EAFFFFF708FF4FF07E634FF6FF729D
S214008C20B3F84C30214D934208BF4FF47A732B8033
S214008C3000231F4C2380FFF729F9FFF735F900289A
S214008C40FBD04FF07E634FF6FF72B3F8423093428C
S214008C5008BF4FF4C8632B8000232380FFF7B2FCC5
S214008C60431E144DDBB20A2B134C287018D840F262
S214008C70035222FA03F3DB0712D50222C123029025
S214008C80CDE900323D2084230C492CF0B1F9FF23B6
S214008C902B70D023237005B0BDE83040FFF752BFDD
S214008CA0FFF750FFA023237005B030BDF060002012
S214008CB0F2600020196D0020116D00205BA70300F4
S214008CC037B504460D4614F02DFA022825D840F292
S214008CD017111B48FFF7E0FC1A4B197801F1400307
S214008CE0DBB2022B1FD901F0A003A02B04D00B0689
S214008CF019D57E20FFF7CEFE4FF07E63B3F84030E6
S214008D0013B1204628F0EAFCB5B1002221460E48F1
S214008D1003B0BDE830402DF0EEBC204614F002FA59
S214008D20DC28D4D8D8E7CDE90014842302223D20DD
S214008D3006492CF05DF9DFE72A4621460448E7E7B6
S214008D4061A703001D6D0020FC6000209AA70300A9
S214008D50FA6000202DE9F84FFFF7A6F8A84C48B3B4
S214008D602378580626D599074CBFA64BA64BA74A8C
S214008D701B7812789A4232D00120FFF7A9F87320A8
S214008D80FFF7F2FEA24A4FF6FF7113780133DBB20B
S214008D9013704FF07E62B2F848208A4208BF032262
S214008DA0934219DD51229B4B72201A70FFF7DCFEAE
S214008DB020232370984D994E94F900202378002A9A
S214008DC018DA13F030030ED01A2028F0A6FC237809
S214008DD003F07F032370EFE7FFF72CFEEAE700229D
S214008DE08F4B1A80E6E72A78022AF0D18C4A2B703D
S214008DF01380E9E72A78012A00F0F1800DD9931E46
S214008E00012BD9D83178FF2900F01E81002940F0C7
S214008E10EE80844B19783246E7E09A0719D57949EF
S214008E207A4A794892F800C007780A78ACEB0200D4
S214008E30BA1A02F0070200F00700904298BF81F8C5
S214008E4000C00A78BA4204D123F002032370FFF769
S214008E5041FE237813F0300F1ED013F0200F714F11
S214008E6015D0C2233B706B4B187802237B70237897
S214008E70B87023F03C0323700320012332462B7086
S214008E80684B1978FEF732FF28F047FC94E7C123B9
S214008E903B70FFF797FBE8E713F00C081FD0624F14
S214008EA013F0040F39785F4B0FD06039C9B28020B9
S214008EB01970FFF7EFFD237803F0F3033A78237079
S214008EC05A4B1A7001231846D8E781F080017E209D
S214008ED01970FFF7DFFD237803F0F703EEE79B0733
S214008EE032D5DFF820A1524B9AF800701B78DFF8D5
S214008EF044B1FF1A27F038FE414681464D482DF012
S214008F00F4FB804607F00707B7B9484627F032FE5D
S214008F10494B4046A3F8008014F004F9424B9AF8F7
S214008F2000201B78013043EA02133E4A43F0080350
S214008F301370C0B20323A1E7414658462DF02BFC20
S214008F40013F8046FFB2DFE7304B4FF6FF701978DF
S214008F504FF07E63DB8F2C4F834208BF05233A78A1
S214008F600B44013B521A5B1A02F0070203F0070398
S214008F709A42DFF8B48028DC30482DF0B1FBE0B927
S214008F802E482DF0ADFB01462C4B2D48002908BF7E
S214008F9018462C4B002118602DF0A7FB264B188096
S214008FA014F0C0F83A7898F80030013043EA02131B
S214008FB01C4AC0B21370022360E721482DF090FBD4
S214008FC018B9FEF7D9FF0028DAD1184B1A7898F8A6
S214008FD000309A425ED0237843F00803FAE63378EE
S214008FE0FF2B4DD032460F49C95C00204AE7124B92
S214008FF00139C9B2188814F099FA01460BE700BF88
S214009000116D0020156D0020166D0020186D0020D3
S214009010126D0020196D00201A6D0020326C0020A1
S214009020F26000201D6D0020146D0020176D0020DA
S214009030136D0020F8600020F6600020FC60002021
S214009040FA60002040330020022A1CD1124A002178
S2140090501378013303F007031370104B18682DF0D4
S214009060B6FB0F4B002219880E482DF044FB0E4B22
S2140090701B880BB9FEF70AFF0C4B1A780C4B1A70BC
S21400908000232B7098E60B4A1378013303F007038E
S2140090901370ECE7BDE8F88F166D00204033002013
S2140090A0F6600020F8600020F2600020146D0020BA
S2140090B0176D0020156D00202DE9F04F8046A44F57
S2140090C085B00023DFF8B892A8F8003099F8003091
S2140090D013B93B70FFF7CCFCDFF8A8A29D4E0DF14C
S2140090E00E0028F01EFB272800F0A0813A469DF8C7
S2140090F00E000DF10F013D78FEF746FE20280446CF
S21400910030D070B1FFF7B4FC7A2804D8732878D82A
S214009110272C00F08B8140F255118F48FFF7BCFAE0
S214009120D4E73B789D4205D0022B3FD89DF80F2010
S2140091308A4B5A55DFF824923B7899F80010884CF1
S214009140C02940F08380012B40F0CB80FFF7B0FCB5
S214009150FFF7AEFC28F05FFAFFF78AFC2378580684
S214009160AFD4BBE03B789D42B9D0022B04D89DF823
S2140091700F207A4B5A55B2E7032B1FD0754B188831
S214009180784B1B888342AAD113F0CCFFDFF8C4B11A
S214009190C5B2691C5846C9B22DF0C4FB29469DF8D5
S2140091A00F20BBF8000014F0D5F920E0032B05D003
S2140091B06C4B30881B888342BCD1E5E79AF80030B8
S2140091C0684D83B14FF0000B3388012128462B8071
S2140091D08AF800B02DF0A6FB012300935A46298892
S2140091E0614814F061F930882B888342CCD0202C5B
S2140091F03FF475AF7A2C8ED8732C02D8002C87D10A
S21400920098E7743C062C86D801A353F824F000BFD8
S2140092102D92000017910000359200004192000048
S2140092201791000045920000499200007420FFF755
S2140092309BFC4BE77620FFF797FCFFF76FFC45E7B4
S2140092407720F8E77920F6E77A20F4E70E0607D4C9
S214009250032B46D92678730645D4FFF709FC3DE074
S21400926001F0E002802A23D1012B3AD17D20FFF7BE
S21400927011FCFFF7FDFB267871062FD50225DFF8D7
S21400928008C13A4A99F800309CF80000117803F0BB
S214009290070BABEB000E091A0EF0070E01F00701E4
S2140092A08E4529D97820FFF75FFCFFF737FC08E7E3
S2140092B0A02A0BD1012B14D17F20FFF7EBFBFFF781
S2140092C0D7FB2678720609D50325D8E77B20FFF75B
S2140092D04BFCFFF7CDFB23785D06E6D420232370F6
S2140092E0EFE67C20F3E7224B1B78B3EB111F01D08F
S2140092F0FFF7BEFB0125C2E7A5F1020A83451FFA68
S2140093008AFA0DD000211B488CF800B0017016F0C8
S21400931002004DD0184A1180184A12785A4535D1A5
S214009320BAF1010F39D9124999F800200B78C2F327
S214009330021098426FD10B4D2888002846D126206F
S214009340FFF7ECFBFFF710FC262005B0BDE8F08F1A
S214009350106D0020FE60002061A703001B6D00203A
S214009360116D0020006100201C6D0020166D00208D
S214009370146D0020126D0020F2600020156D002094
S214009380306C00200F6D0020186D0020FEF77EFD6B
S214009390BAF1010FC7D899F8003013F0080312D1BC
S2140093A0234A1370032D7FF48CAEFFF743FB88E649
S2140093B0FEF78EFD1F4A13785B4501D0FEF766FD6B
S2140093C0FFF788FBE4E7FEF7BDFDEBE7013303F0AC
S2140093D007030B704FF07E63160742BF227842F0F9
S2140093E008022270227822F005022270B3F840307C
S2140093F00BB128F073F92B883D20019399F80030C3
S214009400022200930C4985232BF0F2FD2B880020C6
S214009410A8F8003099E71207237802D543F008032E
S2140094205DE7DB073FF541AF75203CE727208CE77B
S214009430316C0020166D00209AA7030008B5114B6A
S2140094401B781BB1002000F0010008BD0E4B1A78F7
S2140094500E4B1B789A42F5D10FF0F0FD0028F1D1A3
S2140094600B482DF03DF90028ECD00A482DF038F9CD
S2140094700028E7D0084B1B78002BE3D10120FEF72D
S2140094802FFEE0E7306C0020176D0020146D0020E2
S214009490FA600020FC6000201A6D0020F0B551B183
S2140094A0002807DA2D23B0F1004F137000D0404299
S2140094B0012100E0002100252C460E4F002357F81E
S2140094C0046B01E06346801B864203F1010CF9D968
S2140094D013F0FF0300D125B14D1C30335354E9B2CD
S2140094E001250134E4B2092CE8D130305054481C30
S2140094F0C0B2F0BDA0A703002DE9F04F002495B040
S2140095002146029480461646A1464422274603A8D2
S21400951002AC9A4625462AF0D2F9317859B9641B2E
S214009520E4B2224629460020C047002840F08F803B
S2140095303819C0B28CE0252918D0B9F1000F19D11E
S21400954004F8011B12AB9C42C0F0D380641BE4B24B
S214009550294622460020C0470146002877D13C44D1
S21400956048222846E7B22AF0AAF9C1E0B9F1000F6E
S21400957000D101363278622A47D021D8252A3ED03B
S21400958004D8002ACBD04FF00009DBE7392A15D8DB
S2140095902F2AF8D9717801F0DF01582940F0D880D9
S2140095A0322A06F1010940F0C080204604223AF82B
S2140095B0041B28F0C7F804464E46E4E7582A15E090
S2140095C0632A6BD0A2F1640C5FFA8CFCBCF1140F1A
S2140095D0D9D80121604B01FA0CF010EA030940F0DB
S2140095E08A8010F4104060D1BCF1140FCBD1204615
S2140095F002221AF8041B28F0A5F80446C3E7214601
S21400960001F8022B62700C46BDE74FF00009DAF84D
S21400961000300DF1480B0193DAF804300093009BFC
S214009620994502D10AF1080AADE7019B20460222BD
S21400963013F8091028F086F85845044612D3441B40
S214009640E4B2294622460020C047014618B1002051
S21400965015B0BDE8F08F3C4448222846E7B22AF011
S2140096602EF92C46009B5A1E4A4584BF202204F839
S214009670012B5C450FD3641BE4B22946224600202A
S214009680C04701460028E2D13C4448222846E7B2BB
S2140096902AF015F92C4609F10109C0E7534653F89C
S2140096A0042B9A4604F8012B6DE7641BE4B22246AD
S2140096B0294648465AF804BBC0470028C7D13C4450
S2140096C0482249462846E4B22AF0F9F85FFA89F3B8
S2140096D01BF803004F4609F101090028F6D1FFB236
S2140096E03A465946C0470028B1D181463C44E7B2C5
S2140096F02C46013611E76C2ADAF800000AF1040954
S2140097000FD17378752B01D0642B04D1B3F175019A
S21400971018BF012101362246FFF7C0FECA460444A0
S21400972031E7752A08BF0021F5E7342A10D15646DE
S21400973056F804AB04224FEA1A41204628F002F8F5
S2140097401FFA8AF1042227F0FDFFB246044633E7EB
S2140097504FF00109F6E600BF01010200054B1A783A
S2140097602AB95B78002B0CBF03200220704701202B
S214009770704700BF296D00200329F8B598BF124B2B
S21400978005460E468CBF00245C5C032805D8DFE83F
S21400979000F002080B0E44F002040C4B1F684FB991
S2140097A0F8BD44F00804F8E744F02004F5E744F078
S2140097B08004F2E77B681A68144203D031462846D4
S2140097C05B6898473F68EAE7C4A703007033002049
S2140097D038B5104D2B78ABB10F4C23781BB100F089
S2140097E02FFB00232370002027F0CAFF0B4C50B13C
S2140097F000F078FB0023012120782B70FFF7BCFFD8
S2140098000123237038BD0122054B1A702278054BC0
S2140098101A70F7E7256D0020236D00202B6D0020C1
S214009820266D0020276D002010B527F092F9064B14
S21400983004461B781BB1BDE8104027F08EB9FFF731
S214009840C7FF2046F7E700BF226D0020094A1378BD
S21400985030B101331370084B1B78012B03D87047C7
S214009860013B13707047054B1B780BB9FFF7B0BF71
S214009870704700BF296D00202B6D0020266D00204C
S21400988070B527F066F9124E054633789BB900F09E
S21400989059FC044620B1284627F05FF9204670BDE3
S2140098A00C4827F096F800F0FDFE0B4B1C6000F00D
S2140098B02FFD0A4B186000F0C7F927F063FF084B2E
