:1040000000100020BD470000A56B0000A96B000058
:104010000B4A0100AD6B0000B56B00004D43010081
:104020004D4301004D4301004D4301004D4301004C
:10403000B96B0000C0A601004D4301004D430100D3
:104040004D4301004D4301004D430100E546000092
:104050004D4301004D4301004D4301004D4301001C
:104060004D4301004D430100A97300004D43010081
:104070004D4301004D4301004D4301004D430100FC
:104080004D4301004D4301004D4301004D430100EC
:104090004D4301005D4D00004D4301004D430100C3
:1040A0004D4301007D4E00005D4E00004D43010078
:1040B0004D4301009BA501004D43010091410100CA
:1040C000A1A501009DA5010025390100ADA50100B4
:1040D000A5A5010055410100A9A50100AD1F0100E2
:1040E000D14101004D4301004D4301004D4301000A
:1040F0004D4301004D4301004D4301004D4301007C
:104100004D4301004D4301004D4301004D4301006B
:104110004D4301004D4301004D4301004D4301005B
:104120004D4301004D4301004D4301004D4301004B
:104130004D43010000000000F7B5012003F0E8FB4B
:104140000446002840F09F80534E544B544DC6E91E
:10415000003041F60B2310227F21B06028605148C7
:10416000AB8014F099FC7F224F4B214630461A70E9
:1041700009F088F9044600B9FEE74C4909F024FD2E
:1041800000B1FEE70221204615F03AFC00B1FEE73F
:104190002046474909F02EFF00B1FEE701212046E5
:1041A00015F0DFFD00B1FEE70121204615F0E7FD27
:1041B000074600B1FEE701463C223E4814F06CFC85
:1041C00080233A46204606F1100115F0E1FC8028D4
:1041D00000D0FEE7384E012009F0A8F92CA3D3E95E
:1041E000002334602046CDE900234FF0FF324FF02A
:1041F000FF3315F040FC014600B1FEE7284603F00E
:10420000E3FB0121084603F0B1FB0121306815F002
:104210009FFB00B1FEE700244FF40C620021274809
:1042200014F03AFC264B274A9C801C60264B6FF00A
:1042300063001A609C80254A254B1A60254A9C80A1
:104240005A6105F0B7FA2B790B2B00D9FEE76B7991
:104250000A2BFBD9204B1D6002F0E0FA204603F048
:1042600003FC08223068114615F00AFC044600B130
:10427000FEE704F065FC194B19481C7003B0BDE85B
:10428000F04011F013B803B0F0BD00BFAFF30080F1
:104290000BE020FF2202000084370020ED7B0000AD
:1042A0007C370020AC480020AB48002007001100FC
:1042B000E4A80100343700207437002018380020AB
:1042C000381500204549002010150020C648002060
:1042D000E8140020D814002078370020C7490020B7
:1042E000D5A801000348044B834202D0034B03B11D
:1042F0001847704778140020781400200000000050
:10430000064B0749C91A891048BF0131491003D02B
:10431000044B0BB101481847704700BF78140020C8
:10432000781400200000000010B5064C237843B933
:10433000FFF7D8FF044B13B10448AFF3008001230B
:10434000237010BD8A48002000000000E8E401004E
:1043500008B5054B1BB105490548AFF30080BDE822
:104360000840FFF7CDBF00BF00000000F82B002081
:10437000E8E40100A3F5803A704700BF174B002B1B
:1043800008BF134B9D46FFF7F5FF00218B460F46F4
:104390001348144A121A14F07FFB0E4B002B00D066
:1043A00098470D4B002B00D09847002000210400B7
:1043B0000D000D48002802D00C48AFF3008006F035
:1043C00029FF2000290014F08AFA06F011FF00BF2F
:1043D00000000800000000000000000000100020A5
:1043E00078140020F04A00200000000000000000C7
:1043F000BFF34F8F0549064BCA6802F4E0621343CE
:10440000CB60BFF34F8F00BFFDE700BF00ED00E0C2
:104410000400FA0500239B6AB3F5804F03D21968A4
:10442000064A914203D00023037083607047012243
:1044300002709A689B694260F7E700BF07B0CD5EE3
:1044400008B54FF00053024A1A60FFF7D1FF00BFD2
:1044500002020FF073B5494B04461A781AB10222D2
:104460001A7002B070BDCDE900220028F9D00126F3
:104470001E7010F017F9424D424B18600CF044FCCE
:104480002B785BB900F00AFD40B93F4808233F4A4A
:104490003F49006808F0FAFD00B92E703D4B5A689C
:1044A000E2603D4A9A601A6E22605A6E6260D3F8EA
:1044B0007021A2601B6E5C0440D5384AD368D807CF
:1044C000FCD4374B1A68531C3DD04FF480139340F3
:1044D000344A13660423334C23664FF48063236607
:1044E0000FF0F8FE01300ED00FF0F4FE40F2011391
:1044F000984208D04FF4804323664FF4004323666C
:104500001023C4F870311023264C4FF080422366EC
:104510004FF400536846236601A9226663660FF0D4
:10452000C1FE009B2366019B63662B78002B98D00D
:10453000164B1A6822665B68636692E71A4AD3686C
:10454000D907FCD4BDE7194B1B78002BC2D1184BFF
:104550005A68144B12B94FF480121A66154A526801
:1045600012B94FF400121A66134B5B68002BB1D1DD
:104570004FF480020B4B1A66ACE700BF8C4800205A
:104580008D480020202C0020D0100020242C00205A
:10459000007108000080004455CEAC0000000440CB
:1045A0009810002000900044000004508B48002028
:1045B0000080055000C005500000065038B5224D5F
:1045C00004462B78012B02D001232B7038BD002824
:1045D000FCD00FF07FFE013009D00FF07BFE40F2DF
:1045E0000113984203D0194AD368DB07FCD4226830
:1045F000174B1A6662685A66A268C3F87021E268AF
:10460000D40744BF00229A60124B1A68013213D1BA
:10461000114A127882B911494968C80748BF1A601F
:104620000F4A5268D10744BF01221A600D4A5268EE
:10463000D20744BF02221A600CF06EFB0A4B1868C6
:1046400010F036F80023C0E78C480020000004403A
:1046500000800044981000208B4800200080055006
:1046600000C0055000000650202C002038B5002363
:104670009B6AB3F5804F25D21A68144B9A4221D118
:10468000134D2B7813F0FD0402D00024204638BDD2
:104690001048FFF7DFFE08214FF480330E4A0F4821
:1046A000C2F88011C36011600D4A1361A36ADB690F
:1046B000984704460748FFF781FF002CE6D1012305
:1046C0002B70E2E74FF48174E0E700BF07B0CD5EE6
:1046D0008B480020102C002000E100E000A00044E6
:1046E0000090004413B5204B1B7803B9FEE700236C
:1046F0001E4CCDE900336A4608231D49206808F0A6
:10470000C5FCF0B91B4AD2F84031D2F840211F2B2A
:104710004FF0010310D9203A9340019A1A430192B5
:1047200008236A461249206808F066FC4FF00053DF
:10473000114A1A60FFF75CFE9340009A1A430092F8
:10474000EEE70E4B9842F1D10A4AD2F84031D2F846
:1047500040211F2B4FF0010385BF203A9340934027
:10476000019398BF0093DBE78C480020D010002015
:1047700000710800008000440B020FF00BE000F015
:104780000346054A0549106803448B428CBF4FF02D
:10479000FF301360704700BF9C1000200080012094
:1047A0000348044A0449121A92100FF0D0BD00BF0A
:1047B000DCE80100DCE80100F04A002008B500F068
:1047C0002FF8FFF7EDFF124B12498B4212D3002056
:1047D000114B12498B4218D3FFF7D0FD186850F8DF
:1047E0002240586840F82240013298688242F5D34E
:1047F0000C33EAE70022F8E71C6844F82200013293
:104800005C68A242F8D30833E4E70022F8E700BF6F
:10481000F0E40100FCE40100FCE40100FCE4010020
:104820006FF00100104B114A10B59A60D3F8882040
:104830000F4942F47002C3F8882001F50052106657
:1048400041F2FF7050660220C3F8D000BFF34F8FD3
:10485000BFF36F8F08244FF440330648C0F88041FF
:10486000D36004600B6110BD00ED00E0004000006B
:104870000080004400E100E0014B1868704700BF71
:10488000A4100020014B1860704700BFA410002046
:10489000084B1B6F03F00703022B04D0032B05D03A
:1048A000012B05D0FEE7044B18687047034BFBE76C
:1048B0000348704700800050A4100020AC10002076
:1048C000002D310108B5FFF7E3FF054B1B6FC3F364
:1048D00001330133B0FBF3F0024B186008BD00BF99
:1048E00000800050A01000200048704700B4C404AD
:1048F000014B1868704700BFAC100020054B1860D2
:10490000054B1B6F03F00703032B01D1FFF7DABF41
:10491000704700BFAC100020008000500048704776
:10492000002D3101174B9868C0F304400C280AD8B9
:10493000DFE800F00B0909090909072119091B1D06
:104940001F0011487047002070479B6803F04073B8
:10495000B3F1807F11D0B3F1007F10D00B4A002B50
:1049600008BF104670470A4870470A4870470A480F
:1049700070470A4870470A4870470A4870470A4813
:10498000704700BF0040015A405DC60000093D006D
:10499000C0EA210180BA8C010048E801005A620295
:1049A0000024F40080841E0040420F00014B186870
:1049B000704700BFA810002010B50122437801788D
:1049C000847830209A40054B00FB01331CB942F239
:1049D00010015A5010BD41F21001FAE700C0035017
:1049E00010B5012243780178847830209A40054B35
:1049F00000FB01331CB941F210015A5010BD42F2C4
:104A00001001FAE700C003502DE9F04F9A46564BCB
:104A100085B01B7806460F461546DDF83C909DF89C
:104A200044B0DDF85080002B00F09780072A00F298
:104A300096800E9B002B00F09280B9F1000F00F0E1
:104A40008E80129BB3F5006F00F38980012803D19B
:104A5000109B002B00F08380444B03EB05131B7B62
:104A6000002B7ED0424C10220021684614F014F82E
:104A700004EB45141022A7BB3946204614F00CF86D
:104A800043F210036380BBF1000F03D1E37843F0DE
:104A90000303E370364A0E9B02EB451CCCE90193FD
:104AA000129B6901581E9DF84C30C0F30A0003F0B8
:104AB00003039B0643EA001E53582E48012E00EACA
:104AC00003004EEA0003CDF800A0535017D0B8F110
:104AD000000F2ED19CF8023068F304138CF80230DA
:104AE00027E00021204613F0D7FF4FF44473638082
:104AF000BBF1000FCED1E37843F03003C9E71323B5
:104B00000CF1100ECCF80C309CE80F008EE80F0072
:104B10006FF00301DCF81C20109B61F39F02012F52
:104B2000CCF81C20CCF8143003D1CCF81890CCF879
:104B3000043000270D4A290102EB051342F80180D9
:104B4000159A28465A60694622469F605E7301F0B6
:104B500017FB384605B0BDE8F08F0748FAE707486D
:104B6000F8E70748F6E700BF8E4800202C2D00200C
:104B70002C2C00200F80FFF3028000F0018000F059
:104B8000078000F038B5124B05461B78DBB1E0B169
:104B90000FF088FD0F4A00231146147B54B92B6097
:104BA00001251A0101EB03131D738C500FF080FDDA
:104BB000204638BD0133082B02F11002EDD10FF071
:104BC00077FD0548F5E70548F3E70548F1E700BF3D
:104BD0008E4800202C2D0020048000F0028000F080
:104BE000018000F0154B13B51868002301908DF873
:104BF00004300FF057FD124B1C7824B10FF058FD14
:104C0000104802B010BD01221A700FF051FD0E4B7A
:104C100001A81C731C7783F82C4083F83C4083F870
:104C20004C4083F85C4083F86C4083F87C40082358
:104C30008DF8073001F07AFA2046E2E710A701006C
:104C40008E480020038000F02C2D00200A4A08B571
:104C500012785AB107280BD8084A02EB00131B7BC5
:104C600043B1002101F054FA002008BD0448FCE7DC
:104C70000448FAE70448F8E78E4800202C2D00206D
:104C8000028000F0018000F0078000F00A4A08B5B9
:104C900012785AB107280BD8084A02EB00131B7B85
:104CA00043B1012101F034FA002008BD0448FCE7BB
:104CB0000448FAE70448F8E78E4800202C2D00202D
:104CC000028000F0018000F0078000F00C4B1B78A0
:104CD0007BB107280FD871B10A4B03EB00131B7B84
:104CE0005BB1094BDB6AC34003F0010300200B708A
:104CF000704706487047064870470648704700BF2F
:104D00008E4800202C2D002000000450028000F06E
:104D1000018000F0078000F00B4A10B512780C46B5
:104D200062B107280CD859B1084A02EB00131B7B6B
:104D300043B101F071FA2060002010BD0448FCE787
:104D40000448FAE70448F8E78E4800202C2D00209C
:104D5000028000F0018000F0078000F0184B2DE980
:104D6000F0411F6D5B6D1F4000D5FEE70126002559
:104D7000144CDFF85880374218D02368C8F85060C8
:104D8000A3B1A168284601316268A1609847637B9E
:104D9000012B0BD150B90C4B03EB45131A7B60F37D
:104DA00041021A731A7F60F341021A770135082D08
:104DB0004FEA460604F11004DDD1BDE8F08100BFE2
:104DC000000004502C2D00202C2C0020002004502A
:104DD00070B5044601250B4E04B970BD94FAA4F0D9
:104DE000B0FA80F005FA00F306EB001224EA03049F
:104DF0005368002BF0D0117B11B191689847EBE715
:104E00009847E9E7AC2D002008B5192001F0B8F863
:104E100028B14FF00072074BC3F880211A601A20A6
:104E200001F0AEF828B14FF08062024BC3F8802148
:104E30001A6008BD00E100E038B505460C460FF0E9
:104E400031FC0022044B03EB05135C601A73BDE8D0
:104E500038400FF02DBC00BFAC2D0020064BD3F81E
:104E60002404D3F8202403F50053104000F05530FB
:104E7000C3F82004FFF7ACBF00C00350064BD3F8C3
:104E80002404D3F8202403F50053104000F0AA3086
:104E9000C3F82004FFF79CBF00C00350024B196801
:104EA000024B186807F0CEBFB0100020D0100020D1
:104EB00070B59400224605460E4615F0DDFB431CF6
:104EC0000AD058B922463146284613F0BBFD0028C7
:104ED000034808BF002070BD0248FCE70248FAE71B
:104EE00010E000F021E000F024E000F010B50446EE
:104EF00015F0C6FB431C10D088B901F08BFA23468D
:104F000020F003002044984201D1002010BD53F846
:104F1000042B0132F7D00348F8E70348F6E70348CB
:104F2000F4E700BF0EE000F021E000F024E000F024
:104F300008B50FF0ACFB014B186008BD9C36002093
:104F4000014B18680FF0A7BB9C36002038B141B167
:104F5000013AB2F5006F044838BF0020704703489B
:104F600070470148704700BF037000F0027000F006
:104F700038B504460D460FF095FBA3889BB223B9C4
:104F80002B600FF095FB064838BD142263889BB256
:104F900002FB034408342C600FF08AFB0020F3E787
:104FA0000B7000F0002313B51D4A52F8044B94F81F
:104FB000211081420ED00133042BF6D102B010BD76
:104FC0000028FBD19DF80730002BF7D0A068FFF731
:104FD0003DFEF3E794F83130022BEFD120460FF07D
:104FE00085FA637E2076022BE8D194F82E3003F008
:104FF000FF02002BE2D1A0680DF107018DF8072018
:10500000FFF764FE237E1BB194F82F30002BD7D01E
:105010000023A06884F82F30FFF738FECEE700BFEA
:10502000A036002030B5012490F8325087B080F8C7
:105030002C4095B9426B036822444263094A0490AC
:10504000CDE902524A682433CDE900420A68416939
:10505000C0680FF0DAF907B030BD002380F82C30BB
:10506000F9E700BF9555000030B5012490F83250A3
:1050700087B080F82D4095B9436B026823444363A1
:10508000094B0490CDE902534B683C32CDE9004313
:105090000B68016980680FF09EF907B030BD0023EE
:1050A00080F82D30F9E700BF31510000F8B5044613
:1050B00016460F460FF0F6FAA388E2889BB29A4292
:1050C000054605D8002333600FF0F2FA1748F8BD03
:1050D0001422238807F1100C9BB202FB03433A46CB
:1050E0000833174603CF6745186059603A4603F105
:1050F0000803F6D1142238681860238828469BB22A
:1051000002FB0343083333602388E2889BB20133F8
:10511000B3FBF2F102FB11339BB22380A38801336E
:105120009BB2A3800FF0C4FA0020D0E70A7000F011
:105130002DE9F3411446906A01A9FFF719FF636B4B
:10514000636B013B6363164B984222D00027019D9D
:105150002F61AF600FF0A6FAD5F80C800646B8F1C3
:10516000000F04D0D5E9002339462046C047A06A85
:1051700001A90FF0D2F9A06A83889BB26BB101A993
:10518000FFF7F6FE20460199FFF76EFF30460FF05D
:105190008FFA012002B0BDE8F08184F82D30F5E7E8
:1051A0000B7000F010B5044680B190F82E302BB98A
:1051B0000FF09CF910B9A068FFF748FD002094F8A3
:1051C0002E300133DBB284F82E3010BD0048FCE7EE
:1051D000027000F010B50446A0B190F82E309BB1DB
:1051E00090F82E30012B05D10FF080F910B9A0688E
:1051F000FFF74CFD002094F82E30013BDBB284F821
:105200002E3010BD0148FCE70148FAE7027000F0BB
:10521000057000F037B590F831500446022D1DD1CD
:10522000012290F82230457E817F9A403020164B33
:105230003DB900FB013342F210015A50002003B087
:1052400030BD012D04D100FB013341F21001F4E720
:10525000247E00FB0133002CF7D1ECE7012DEDD1CA
:10526000037E73B911238DF80730FFF79BFF2A46A1
:1052700020460DF107010FF09EF92046FFF7AAFF27
:10528000DCE71323EFE700BF00C00350F0B504468E
:105290009E4F8BB003AE0D460FCF0FC697E80700A9
:1052A00086E807001CB99A4C20460BB0F0BD0DB93A
:1052B000984CF9E75C220021204613F0EDFB96495B
:1052C000964B0A782AB9C3E90022C3E902220122D7
:1052D0000A7092490022084650F8046BB4420AD082
:1052E0000132042AF8D1002251F8040B002840F0C2
:1052F000D28043F822402B7D84F83130286820602A
:105300002B7B2371864B984200F0CA8003F58043C3
:10531000984200F0CA8003F580439842C8D1232107
:105320004FF4C0237F4A002684F82310C4E90423E5
:10533000D5E90723626216805680968084F82C6037
:10534000A3621E805E809E806B6884F82D6005934A
:10535000EB8984F82F60ADF81C302B8A03A9ADF8D7
:105360001A30AB7C8DF80C608DF81830EB7C8DF822
:105370001E3005238DF8193001F0D4F814212A7B52
:10538000694B03EB4217C7F8AC15287AA97A2E327D
:1053900040EA014C03EB4213C3F804C06A7AEB7A8B
:1053A00042EA034CC7F8BCC5E076E177227784F87F
:1053B00020306B7D04226377AB7D84F82130EB7D58
:1053C000A3772B7E84F82230012300F061FE0123B5
:1053D000022294F82010207F00F05AFE94F8313019
:1053E000022B67D13346012294F82110607F00F030
:1053F0004FFE3346042294F82210A07F00F048FEAE
:10540000012394F82120CDE900331146607F00F09C
:10541000F9FD0FF047F92B7D0646032B5BD141F2D6
:10542000AC5202212B7B5B0103F1A04303F57033E7
:10543000995004212A6802F58052D165297EEA7DBF
:1054400042EA014241F2B8515A50A97D6A7D42EACE
:10545000014241F2B4515A504FF0FF32286800F532
:1054600000539A642B7D032B0CBF052104210FF000
:10547000A2F94FF440622B685A61FFF7B3FB002199
:1054800004F10800FFF77EFB0146B0B3274C30461D
:105490000FF00EF908E70132042A7FF425AF02E786
:1054A00021214FF48023224A3DE722214FF4A023FB
:1054B000204A38E7032BACD1334694F82110607FA3
:1054C000012200F0E5FD3346042294F82210A07F6B
:1054D00000F0DEFD9DE7022BBED194F821001649B5
:1054E000FFF7AAFCFFF790FC4FF40073238300231F
:1054F0002046A376FFF78EFEAEE704F10C00FFF71F
:1055000041FB04460028C2D0C0E700BF38A7010015
:10551000027000F0037000F08F480020A0360020D9
:10552000008005500200060000C003500E7000F01D
:105530000200040002000500A54F0000F0B587B08E
:1055400005461646FFF702FD0446E8B90493104BE2
:10555000CDE901166A46686A01A903960593FFF72B
:10556000A5FD044680B995F82C306BB928460EF09D
:10557000ACFF0099FFF756FD95F83130032B03D0AF
:1055800028462C76FFF746FE204607B0F0BD00BF48
:10559000017000F0F7B51446506A01A9FFF7E8FC66
:1055A000636B636B013B63632E4B98422FD094F87F
:1055B0003210019D002938D123689A6C12F40072D0
:1055C00028D0294AA9602A614FF4007203F50053DC
:1055D0009A640FF067F8EF68064637B16A68AB68FF
:1055E0002046D31A29692A68B847606A01A90EF0D3
:1055F00094FF606A8588ADB2DDB101A9FFF7B8FC00
:1056000020460199FFF70EFD30460FF051F80120BA
:1056100003B0F0BD996CC90507D51449AA6029618A
:105620004FF4807203F50053D2E700232B61AB6087
:10563000CFE7012320462376FFF7ECFD94F83130C5
:1056400084F82C50032BDFD042F2AC520421237992
:105650005B0103F1A04303F57033995002222368E4
:105660005A61D1E70B7000F00D7000F00C7000F083
:10567000F0B587B004461646FFF768FC054638BB10
:105680000493154B039605932368CDE901169B6996
:105690009B0702D420460EF007FF6A46A06A01A9C4
:1056A000FFF704FD054698B994F82D3083B90EF044
:1056B000F9FFA36A06469B889BB233B12046009946
:1056C000FFF7D2FC012384F8303030460EF0F0FFB3
:1056D000284607B0F0BD00BF017000F041F67133FD
:1056E000124A30B5D469124DD3639368A84204F4CA
:1056F000803423F4401306D893600E4AD2F818324F
:1057000023F002030AE043F4801393600A4B9842AB
:10571000F3D9084AD2F8183243F00203C2F818321B
:1057200014B10022014BDA6330BD00BF000003500A
:10573000005A620200C0075080F0FA022E4B9842D5
:105740004AD022D82D4B984240D014D82C4B9842A6
:1057500039D00AD82B4B984232D02B4B98422FD0BD
:105760002A4B98422CD000207047294B9842FAD1FE
:10577000284B186F7047284B98422AD0274B9842E5
:10578000F1D1244BD3F880007047254B98422BD0A1
:1057900009D8244B984223D0234B9842E3D11D4B88
:1057A000D3F88C007047214B984221D003F5740345
:1057B00003F510539842D6D1164BD3F89800704792
:1057C000144B986D7047134B586E7047114B586FC0
:1057D0007047104B986F70470E4BD3F8840070479A
:1057E0000C4BD3F8880070470A4BD3F890007047F1
:1057F000084BD3F8940070470048E8010024F400F7
:10580000C0CF6A0080841E0000093D0040420F00A6
:10581000405DC6000080E00FC0EA210180BA8C0123
:10582000007E560380D54302006CDC020090D0035A
:1058300038B5134B0546D3F820010C4600F007009D
:1058400004281AD8DFE800F003090D111500012320
:1058500005B1286004B1236038BDFFF70DF80423BB
:10586000F6E7FFF745F80323F2E7FFF75BF80523B8
:10587000EEE7FFF753F80223EAE700231846E7E7CD
:105880000080005037B50C460021114B0191D3F830
:105890008031054603F00303022B0ED0032B11D0F9
:1058A000012B03D101A8FFF7C3FF0D210DB1019B0F
:1058B0002B6004B1216003B030BDFFF733F8052140
:1058C0000190F3E7FFF72AF802210190EEE700BF0D
:1058D0000080005038B5104B0546D3F840310C46D7
:1058E00003F00303022B0BD0032B0DD0012B0FD1A0
:1058F0000EF03AFD082305B1286004B1236038BDDD
:10590000FFF754F80723F6E70EF031FD0923F2E71D
:1059100001230020EFE700BF0080005038B5104B96
:105920000546D3F860310C4603F00303022B0BD07D
:10593000032B0DD0012B0FD10EF016FD082305B15E
:10594000286004B1236038BDFFF730F80723F6E77D
:105950000EF00DFD0923F2E701230020EFE700BF61
:105960000080005038B5144B0546D3F800020C46B1
:1059700000F0070004281BD8DFE800F003090D1130
:105980001500012305B1286004B1236038BD0EF075
:10599000EBFC0823F6E7FFF709F80723F2E70EF020
:1059A000E6FC0923EEE7FEF78DFF0C23800AE9E70A
:1059B00000231846E6E700BF0080005038B5144BBE
:1059C0000546D3F808020C4600F0070004281BD84F
:1059D000DFE800F003090D111500012305B128606F
:1059E00004B1236038BD0EF0BFFC0823F6E7FEF7D4
:1059F000DDFF0723F2E70EF0BAFC0923EEE7FEF71E
:105A000061FF0C23800AE9E700231846E6E700BFA0
:105A10000080005038B5104B0546D3F840320C4694
:105A200003F00303022B0BD0032B0DD0012B0FD15E
:105A30000EF09AFC082305B1286004B1236038BD3C
:105A4000FEF7B4FF0723F6E70EF091FC0923F2E717
:105A500000231846EFE700BF0080005038B5104B18
:105A60000546D3F800310C4603F00303022B0BD09C
:105A7000032B0DD0012B0FD1FEF73AFF032305B105
:105A8000286004B1236038BDFEF790FF0723F6E7D6
:105A90000EF068FC0623F2E701230020EFE700BFC9
:105AA00000800050032814D005D8012805D0022812
:105AB00009D0002005E00F28FBD1084B186FC0F378
:105AC000013001307047054BD3F89000C0F30460FB
:105AD000F7E7024B186FC0F38020F2E70080005018
:105AE0001FB500230193252817D8DFE800F0131A0B
:105AF0001D272C363B51565B60656A78161A401696
:105B000016561A272C27361A5127783B3B3B3B2742
:105B100027275B60FEF7BCFE0190019805B05DF899
:105B200004FBFEF7CFFEF7E7FEF7B2FE02460220C7
:105B3000FFF7B8FFB2FBF0F20192EEE7FEF7C2FE0C
:105B400002460320F4E7FEF7BDFE02460320FFF7FE
:105B5000A9FFB2FBF0F25208EEE7002101A8FFF71F
:105B600091FEDAE7002101A8FFF762FED5E7029374
:105B70004FF0E0231B695B0705D5FEF7A3FE0290FB
:105B8000029B0193C9E703A902A8FFF7A3FEF7E769
:105B9000002101A8FFF79EFEBFE7002101A8FFF743
:105BA000BDFEBAE7002101A8FFF7DCFEB5E7002142
:105BB00001A8FFF703FFB0E7002101A8FFF74EFFA0
:105BC000ABE7094BD3F8803003F00303022BA8D0D6
:105BD000032B01D000209FE7FEF7A4FE9CE70021E5
:105BE00001A8FFF717FF98E70080005008B50120D3
:105BF000FFF776FFBDE808400349884294BF0121C2
:105C00000221032000F002B880F0FA02032810B548
:105C10000C4627D004D8012804D0022817D010BD84
:105C20000F28FCD10EF016FD0EF01CFD124A013CAF
:105C3000136F23F4405343EA04331367FEF742FE25
:105C40000021FFF74BFDBDE81040FFF7CFBF0A4A28
:105C50004C1ED2F8903023F0F85343EA0463C2F8A4
:105C60009030DCE7044A4C1E136F23F4806343EA50
:105C700084231367D3E700BF008000501FB50023C3
:105C80000193252821D8DFE800F013202020202AC6
:105C90002F454A4F54595E7120203420204A20203D
:105CA00020202A204520712F2F2F2F2020204F54D5
:105CB000314B1B6F03F00703013B032B05D8DFE8D3
:105CC00003F00C02080A04230193019805B05DF863
:105CD00004FB0323F8E70623F6E70223F4E700209A
:105CE00001A9FFF7CFFDF0E7002001A9FFF7A0FD14
:105CF000EBE702934FF0E0231B695B0705D5FEF746
:105D0000E1FD0B230393039BDEE703A902A8FFF742
:105D1000E1FDF8E7002001A9FFF7DCFDD5E7002051
:105D200001A9FFF7FBFDD0E7002001A9FFF71AFE4C
:105D3000CBE7002001A9FFF741FEC6E7002001A93B
:105D4000FFF78CFEC1E70C4BD3F8803003F0030360
:105D5000022B03D0032B05D00023B5E7FEF7B2FDDD
:105D60000B23B1E7FEF7DEFD0523ADE7002001A917
:105D7000FFF750FEA9E700BF0080005038B5054688
:105D8000FFF7DCFC204B04465A68012A04D11F4966
:105D90004A609A699207FCD10020FFF76FFF042840
:105DA00003D10EF057FC0EF05DFC194A24F040734D
:105DB00095421FD0174A95421FD0174AD16811F05B
:105DC000060FFBD19068936091684B4013F4F81F65
:105DD00016D12846FEF756FD0020FFF74FFF042896
:105DE00010D1FEF76FFD0021FFF778FCBDE83840C9
:105DF000FFF7FCBE43F00073DFE743F08073DCE79E
:105E00009060E9E738BD00BF00C0015000E00150DC
:105E100040420F0080841E0000000150F8B5044687
:105E20000020FFF72BFF032800F0818045F60E03CA
:105E300002213F4AC2F880303E4B9962012103F5AE
:105E400080539962936DD903FCD4D4E900131B05E8
:105E500043EA0163E17B94F820500B43217BE77E0A
:105E600043EA0143617B6D0143EA0133A17B43EACD
:105E7000811313619169D4E904031B0643EA80632B
:105E800001F000410B43A17E94F823000B43217ED7
:105E900043EA0143617E43EA01239361136AE669A1
:105EA00023F00D0394F8221043EA870366BB1362C4
:105EB000966A94F8213045EA031326F033052B4304
:105EC00043F0010393621C4D194A936D35EA0303B5
:105ED000FBD10225174B9D62936D5B00FCD41369C7
:105EE000A56823F4700343EA055313614FF00042A1
:105EF000104B9A6119B9022203F580539A6278B95E
:105F000001220E4B9A620BE0334343F00803136205
:105F1000936A23F0330303432B4343EA4103936221
:105F200094F824301BB1024B054AC3F88020F8BD19
:105F300000C0005000D000500300014000E00050BD
:105F4000F1A7FFFF014B93F9000070479048002034
:105F5000014B1880704700BFB81200200028ABBF6B
:105F600000F16040054B00F5614000F00F00ACBF50
:105F700090F80003185C0009704700BF14ED00E0C2
:105F8000054B420953F8223000F01F0023FA00F0BD
:105F9000C04300F00100704700E100E0014608B591
:105FA000EFF31083DB0702D50122104608BDFFF78F
:105FB000E7FF02460028F7D10846FFF7CFFF01466A
:105FC000EFF3118313B1B0EB131FEDD2074B5B68F6
:105FD000C3F30803002BE8D0103B58B2FFF7BEFF15
:105FE00088428CBF00220122DFE700BF00ED00E005
:105FF000034A0179D36E23F030030B43D366704715
:1060000000400050072A2DE9F0410D4614469846FD
:106010000FD803269700BE4000FA07F23146154814
:106020000EF049FB05F0030231461348BA400EF06A
:1060300042FB124B12499DF81800B8F1000F18BF2F
:106040001946012303FA04F40C600E4B0E49002894
:1060500018BF0B461C600D4B9DF81C00C3F8204474
:10606000103103F22443002818BF0B461C60BDE822
:10607000F08100BF00C4035008C4035010D4035083
:1060800010E4035014E4035014D4035000E0035010
:10609000F8B504460D461F4616464AB101238B400B
:1060A0003021184A01FB0022F7B141F21001535090
:1060B00004EB4403072D4FF00F014FEA031316D8EA
:1060C000A80006FA00F281400F4818440EF0F3FAD7
:1060D0004EB9012330210B4AAB4001FB042277B1BA
:1060E00041F210015350F8BD42F21001DFE7A5F173
:1060F0000800800006FA00F281400448E5E742F219
:106100001001EFE700C0035004C003500CC003505F
:10611000044A054B002908BF1346012282401A6039
:10612000704700BF401004504020045030B5012596
:106130000178114B09064478C2785D6099608178D6
:106140004FF4001041EA04419961FF219962002156
:10615000996319644FF0004159654FF0FF3103F521
:106160000053196505491301DBB2C1F8800181F8BC
:106170001533086030BD00BF0000045000E100E0AE
:10618000F8B50125C3B2DFF888C0D1F800E09D4022
:106190008F7ACB7A0C46097BCCF850500CF5005C1A
:1061A0004CF820E04FF0300E184E1B050EFB00603F
:1061B00094F80DC043EA074343EA415322F0030237
:1061C000C0F860C0C36502670EF06CFA736D2B43B4
:1061D0007365237A13B1336C2B433364637A13B141
:1061E000B36B2B43B3632279A37943EA0243084A92
:1061F00093616179E37943EA014306498B61034B7B
:1062000055639D64BDE8F8400EF052BA000004509A
:106210000020045000100450F8B50125C3B2044614
:106220009D400EF03FFA3022094B1E6D5F6B02FB62
:1062300004335C6E0EF03CFA3D4206D1C4F30A1002
:1062400008B9354200D10130F8BD0020FCE700BF9D
:106250000000045041F67132034BDA63012203F56A
:106260000053DA60704700BF0000035041F67132FE
:106270000121044BDA6303F50052D1600022DA6396
:10628000704700BF00000350013825289ABF024B19
:10629000185C0020704700BF54A70100021E30B5F3
:1062A0004FF000000CBF0C25042547F60774084981
:1062B00052B9831D51F82330234023B10130854268
:1062C000F6D14FF0FF3030BD00F11203F2E700BF0E
:1062D0000080035038B5C2F30625044602F00702D9
:1062E00041B942EA052242F440220634074B43F802
:1062F000242038BD114628460EF0ECF90246284607
:10630000FFF7C2FF123442EA0022EFE70080035099
:10631000014BD3F89400704700400050CB784A7886
:1063200010B55B010C7843EA82030A79234343EA00
:1063300002130C22424302F1B0421363012C02BF4C
:106340008A78024B43F8202010BD00BFD080035054
:1063500008B54FF0B0435A686AB958B15B680BB1E1
:106360000EF0E7F901210D4B59600EF0E2F94FF004
:10637000B043D96008BD5B680BB10EF0DAF90028B4
:10638000F0D10EF0D6F94FF0B0430222DA600EF0F1
:10639000D0F90122024B5A60ECE700BF0010005810
:1063A000002000584FF0B0414B6810B50BB10EF013
:1063B000C0F901220B4BC4785A608378934043EABA
:1063C000840344782343047943EA0413447943EA79
:1063D000C4038B60044B5A600378C3F10203CB60A3
:1063E00010BD00BF0020005800100058054B5B692D
:1063F000C3F38512827003F03F021B0B42700370DF
:10640000704700BF00C00750014B986CD96C7047B3
:106410000080E00F0120034B9B680A3303F01F0349
:10642000984070470080E00F0D4B984208D1A3F5CB
:106430000033C3F88411C36D43F08003C365704714
:10644000084B984204D1A3F51033C3F89411F2E736
:10645000054B984204BFA3F52033C3F8A411EAE723
:106460000080055000C005500000065070B505467C
:1064700016461C4619B90320FFF732FB0146402C93
:106480001BD003D8DCB1202C1BD070BD602CFCD1FC
:10649000042303FB06F2530803EB4113B3FBF2F3AF
:1064A000094A203B02EAC303AA6822F06002AA60FC
:1064B000AA681443AC60EB61E7E70623E9E7102321
:1064C000E7E70823E5E700BFF8FF7F00012200F5BA
:1064D00080535A6040F6AA6341F2050243610023EB
:1064E0000D498360C365C26000F500520361C3615A
:1064F000C364916409498365884203D1036500231D
:10650000436506E006498842F8D001F5804188429B
:10651000F4D0012353607047FFFF01000080055055
:1065200000C0055070B50D46FFF7D0FF012300F500
:1065300080567360AB7C04461BB1836843F0804394
:106540008360EB7C1BB12046297DFFF76DFF2A8A13
:106550006B7B20461343EA891343E3602B7BD5E929
:106560000112FFF783FF6B7D1BB1A36843F48033F7
:10657000A360AB7D1BB1A36843F40043A360EB7D34
:106580002A7E1B07120502F4E00203F0E0431343E6
:10659000A365697E1F4A8B1E012B1F4B1DD8944299
:1065A00017D002F58042944215D002F58042944201
:1065B0000CBF02224FF0FF3203EB4213022041F2E4
:1065C000AC520329985020D10423F3652B786361E2
:1065D00070BD0022F0E70122EEE7944211D00F4A8D
:1065E000944210D002F5804294420CBF02224FF038
:1065F000FF3203EB4213022042F2AC5201299850C1
:10660000E1E70022F5E70122F3E7042204F5005355
:10661000DA65DBE70080055000C0035000C005507C
:1066200038B50446054D13F05EFA0FCC0FC594E85B
:106630000F0085E80F00002038BD00BFB0360020F5
:1066400047F6FF739A42F0B572D0022972D83A4BDE
:106650005B5C022B6ED8394DDF0005EBC304A178DB
:1066600015F83330012938BF0121012B13D1002542
:10667000E078401AA84202D80844C0B2F0BD431BDB
:106680006668A0EB530336F913609642D4BF1D46EB
:1066900003F1FF30EEE760680028EFD0B0F900406A
:1066A000944204DBB0F902409442B8BF1446838898
:1066B0003D44FF2B19BFC8224FF0280CB0F906202B
:1066C000B0F908C0A2EB04030CBF0126002693FB1F
:1066D000FCF333446E781BB29E4201DD002B01DADD
:1066E000731E1BB24FF47A7C01339BB2071D5D1EF3
:1066F0002DB24FEAC50E00EBC505EA88AD689E4293
:1067000014FB025222EAE27202F15C02B2FBFCF2DA
:1067100004DD37F8335001339542E8D200EB0E0325
:106720009888904228BF1046884238BF0846A4E7A0
:10673000FF20A3E70020A1E77AA70100B0360020E0
:106740000229F0B560D8314B595C02295CD8304B36
:1067500013F83100012816D103EBC1039C78D878D7
:10676000012C214638BF0121904294BFC1EB0001AA
:10677000C1EB0201001BCAB28242C8BF00225B68A3
:1067800033F91200F0BD002A3CD003EBC103596875
:10679000002939D09878904202D3B1F90200F1E78C
:1067A000DC78B1F900009442ECD95C788B88013C2C
:1067B000A3F1FF06734201F10405E4B2734101F154
:1067C0000C07DEB2B44216D805EBC3034FF47A755A
:1067D0006A43B3F902405B68D21A04EBD47302EB4C
:1067E000630292FBF4F29042CCDBB1F902009042DA
:1067F000C8DC10B2C6E737F833C05E1C9445E3D35B
:106800003346DEE70348BDE70348BBE77AA701004C
:10681000B03600200CFEFFFF0080FFFF08B50448E3
:10682000FFF7FEFEBDE80840012013F080B900BF6D
:1068300050C101007FB51422002101A812F02CF9EB
:10684000044B01A94FF0FF30029313F0B5F907B0E4
:106850005DF804FB006A18002DE9FF474FF00008BF
:106860000E4617460446CDF80080002859D022B9BC
:106870000025284604B0BDE8F087002951D032F049
:10688000030902F0030A1FD04FF0E063C0E90038AB
:1068900001230191C0F808800293C0F81C8049F0E0
:1068A000005301A903930DF056FF494620460DF011
:1068B0005CFF20460DF0DDFF054628B14A46414603
:1068C000304612F0E9F8D4E7BAF1000FD0D04FF01B
:1068D00000084FF0E063C4E900380123CDF804D08C
:1068E0000293114B204601A9C4F80880C4F81C800B
:1068F00003930DF030FF042120460DF036FF2046B3
:106900000DF0B7FF054608B13A46D8E7009A4E4465
:10691000EB00013522FA03F3AA4506F8013BF7D153
:10692000A6E72125A5E700BF040000202DE9F041DE
:10693000012905460E4690461F4692B04AD8046883
:1069400024F04003802B02D0B4F5807F45D11C2277
:1069500000210BA812F0A0F8234A244B0121012E9C
:1069600008BF13460A932B1D0193E408204B44F003
:10697000005402910AA80394CDF810800591069363
:106980000797089101A909930DF0DBFE04A90AA855
:106990000DF0D7FE07A90AA80DF0DDFE29680AA8A8
:1069A000C9080DF0E2FE10210AA80DF0DEFE0DF080
:1069B0005CFFA8B90AA80DF0E1FE4FF098435A6CAD
:1069C000D202FCD55C6D0DF052FF04F4702012B0C1
:1069D000BDE8F0816FF02000F9E76FF07100F6E795
:1069E0004FF0FF30F3E700BF000100040001010495
:1069F0001000002030B5154B87B00293144B039064
:106A0000049346F611030D46059300F023F814286D
:106A1000044616D168460DF0B7FF4FF0A843032295
:106A200002A95A6319601D619A63DA6B9207FCD15F
:106A3000142C02D168460DF0B5FF00F03BF8044677
:106A400001E00028E9D0204607B030BDD036002054
:106A500004000020144A38B5D2F8803243F0010314
:106A6000C2F88032114B5B68C3F3080343B14FF0A7
:106A7000A842D36B13F0430FFBD11424204638BD3A
:106A80004FF0A843DC6B14F04304FBD1084D2B6896
:106A90001BB90421284602F0D7FD2B68013343F0CF
:106AA00000432B60EAE700BF0080005000ED00E0EB
:106AB000D0360020014B00205B68704700ED00E0FD
:106AC00013B50024064A6846536F43F00103536729
:106AD00000948DF80440FFF78BFA204602B010BDF9
:106AE0000040005008B50248FFF748F9002008BDF3
:106AF00000B4C40430B58BB06C46184D0FCD0FC434
:106B00000FCD0FC495E8030084E80300144BD3F8BD
:106B10004C2112031DD5A3F5FE431C884FF6FF73CD
:106B20009C4208BF8C248DF81940FFF70BFA2044D3
:106B300080F308008DF818000A48FDF7DFFE68466C
:106B4000FFF76CF94FF4FA70FFF702FA00200BB070
:106B500030BDD3F85041E4B2E5E700BF80A70100A3
:106B60000080E00F00F049026FF00403502110B5DF
:106B70000A480B4C13F0800F03F1010207D12344A4
:106B80003D2A83F800131346F4D1002010BD03F012
:106B90000F03043B034419761346EBE700ED00E0D6
:106BA00000E100E000F00CB800F00AB800F008B80E
:106BB00000F006B800F004B800F002B800F000B829
:106BC00072B61EF0080F09D01EF0040F0DD0DFF8CA
:106BD00050E0AEE8FF1F6FF002000CE0DFF840E08D
:106BE000AEE8FF1F6FF00E0005E0DFF834E0AEE81E
:106BF000FF1F6FF006006946EFF309828EE8070079
:106C000086460848084C854501D3A54501D384F341
:106C1000088802F01FFC84F3088802F0FDFB0000E6
:106C2000001000204000002000100020BFF35F8F04
:106C3000074B5A6A22F480325A62D3F8942022F029
:106C40000102C3F89420BFF34F8FBFF36F8F7047DB
:106C500000ED00E070B52948294CFFF7E7FF8442BA
:106C6000284D294919D1D5F8C03023F0FF0343F04E
:106C7000A003C5F8C0304FF080430A68214D234E71
:106C8000C5F8982043F0010301328442C5F89C60A6
:106C9000C5F8A0300A601ED00DE0D5F8C02020F065
:106CA0001F03203B22F0FF0242F0A002B3F1005F7D
:106CB000C5F8C020E1D2164B0A68124823F01F0322
:106CC00043F00303C0F89820C0F89C30114B013208
:106CD000C0F8A0300A60BFF35F8F0522094BC3F8EC
:106CE00094205A6A42F480325A62BFF34F8FBFF346
:106CF0006F8FBFF34F8FBFF36F8F70BDD412002023
:106D00007014002000ED00E0D436002003000020C5
:106D10008F140020E1FFFF3FF8B51446FFF786FF10
:106D20001F2C27D90027C2062A4D1CBF20F01F00A8
:106D300020302A68CB06284B18BF21F01F01FCB277
:106D4000A2422BD8D3F8C04020F01F0024F47F4487
:106D500044F4807421F01F01C3F8C04040F00300E8
:106D6000C3F8982041F003010132C3F89C00C3F836
:106D7000A0102A600020BFF35F8F0522164BC3F8D6
:106D800094205A6A42F480325A62BFF34F8FBFF3A5
:106D90006F8FBFF34F8FBFF36F8FF8BDC3F898406D
:106DA000D3F89C40D3F8A06024F01F04A04226F042
:106DB0001F0601D1B142DDD0B04201D8A14207D2B5
:106DC000D3F89840013724F0FF04C3F89840B6E7A1
:106DD0002820D0E7D436002000ED00E030B50E4C7E
:106DE000416123688BB9206083600DE0891A9A683D
:106DF0001D4641616AB113465A698A42F6D935B1D6
:106E0000A860521A83605A6130BD0025F4E7206003
:106E1000F7E798608260F7E7E036002038B50DF0BC
:106E20001CFE0025084B094C1A682368C31A2AB1B6
:106E300023B15169994203D3C91A5161206038BD09
:106E400055615B1A9268F2E7E0360020DC360020DC
:106E500038B5134D2B685B6993B1124A0220146850
:106E60001C440DF001FE204600F04CFA00230E49B0
:106E70002A680B70D088800709D501230B7038BDB4
:106E800002200DF0F1FD022000F086FAEEE7926894
:106E9000002AF4D050690344012BEBD9EFE700BF7F
:106EA000E0360020DC3600209248002070B51646FF
:106EB0009DF81420C0E903360271049ABDF8183019
:106EC0000260002204460D468260C380EEB90DF0D8
:106ED000C4FD2844A0619DB12E460DF0D8FB0546A7
:106EE000FFF79CFF31462046FFF778FF104B1B68E9
:106EF000A34201D1FFF7ACFF28460DF0CCFB02E026
:106F0000E36865617BB9002070BD0DF0A6FD3044DB
:106F1000A061002DE0D1E3686561002BDDD0204643
:106F200021689847D9E7204621689847EBE700BFDA
:106F3000E036002000220C490B687BB183420AD165
:106F400083687AB1936083681BB15A6941690A44C6
:106F50005A61002070471A469B68EEE70028EFD080
:106F6000022070470B60EEE7E036002070B50DF0B0
:106F700099FB144E05463478FCB9134B1C60134B37
:106F80001C60134B1C8000F083F901200DF06CFD98
:106F90000DF085FD0F4B0246186020B928460DF014
:106FA00087FB232070BD234640F2E7310A4803F0F7
:106FB0008FFF0A4B18600123337028460DF078FBD1
:106FC0000020EFE793480020E0360020DC36002068
:106FD00088470020E436002018FCFFFFD836002048
:106FE00070B5044640B30DF052FB144E0546FFF752
:106FF00015FF3068A04209D02046FFF79BFF0446EA
:10700000B0B128460DF047FB204670BDFFF792FF58
:1070100004460028F5D133683BB9022000F0A4F9FA
:1070200028460DF038FB0024EEE7FFF711FFF7E7E5
:107030003368002BF4D1F0E72224E5E7E0360020A6
:1070400038B50C460546A8B1A1B100230B700DF070
:1070500029FB0121084B1B6833B90DF029FB0020E7
:1070600038BD9D4204D121702278002AF9D0F4E77E
:107070009B68F1E72220F3E7E036002070B50DF0C1
:1070800011FB06460DF0E9FC084B04461D88012063
:10709000ADB20DF0F5FC18B10DF0DFFC0446013582
:1070A00030460DF005FB2046294670BD884700207C
:1070B000F8B50C4B05461B680E4683420FD30024DF
:1070C00040F2E7302146084B4FF47A721F680023E4
:1070D000E5FB070103F0FCFE30602046F8BD2120EF
:1070E000FCE700BFD8360020E4360020014B1868CA
:1070F000704700BFD836002038B5154B1446834280
:10710000144B8B4121D3144B1A68F2B14FF47A75AA
:10711000A0FB050305FB0131531E134211D1B2FA46
:1071200082F2C2F11F05531CD24301FA03F3E84077
:1071300021FA02F218431043E940C4E9000100209B
:1071400038BD002303F0C4FEF7E72120F8E700BFB5
:10715000EFA7C64B37894100E4360020C2072DE96E
:10716000F04704460BD5474A138801339BB213807E
:10717000FFF754FE444B1B680BB1FFF769FEA307F2
:107180007ED50DF08FFA4FF0000905464E46FFF709
:1071900045FEC8463C4F3C680CB163698BB1002288
:1071A0003A4B012E1A7003D119F0020F18BF1E704E
:1071B000002C61D0FFF74CFE2846BDE8F0470DF0EB
:1071C00077BA23465A693AB91A792179914288BF28
:1071D0001C469B68002BF5D128460DF069FA2569FD
:1071E000DDB10DF03AFCA269A0EB02094FEAE973A8
:1071F0004D4578EB030311DA23691344A361E36877
:10720000B4F80690013613B12046216898470DF076
:1072100049FA0546FFF702FEBDE7A9460DF042FA1E
:1072200082462046FFF786FE50460DF041FA23695C
:10723000002BE4D0A38BB5EB090533B1E28B1344EB
:107240009BB2B3F57A7F0FD2E3830DF02BFA814620
:1072500029462046FFF7C2FDA36922694846134428
:10726000A3610DF025FACAE7A3F57A73E383A36956
:10727000013D013BA361E8E7022000F075F89BE7C0
:10728000BDE8F08788470020E036002091480020C4
:107290001FB50024184B18689A880290D3F806008E
:1072A0009B7A009002A8ADF80C208DF804308DF880
:1072B00008408DF80C40FFF775F8694601208DF8FD
:1072C0000040FFF72BF84FF0B0431F219A6922F0DE
:1072D0001F029A61094A51619A6A12F00802FBD1B1
:1072E0001A620120FFF734F84FF48062044BC3F8B0
:1072F00080211A6004B010BDA8A70100002000582A
:1073000000E100E010B504460DF0C1F94FF0B042C5
:10731000936A1907FCD4136A116C5269120704D4DA
:10732000CA1A032A01D899420ED1E21A022A98BF3A
:10733000DC1CB4F1FF3F38BF013C4FF0B0431C648C
:107340009A6942F008029A610DF0A5F9054A13788E
:107350003BB14FF0B041CB6B43F00203CB63002352
:10736000137010BDC4120020820700F001030AD57B
:107370000121084A43F0080311704FF0B041CA6B75
:1073800022F00302CA634FF0B0418A6922EA030384
:107390008B617047C4120020830742BF0822014B53
:1073A0005A6170470010005810B50DF07BF94FF08E
:1073B000B04304465B691A07074A03F0010003F073
:1073C0000D0348BF40F002005361FFF7C7FE20469F
:1073D000BDE810400DF06CB90020005813B51446FC
:1073E00022B902B0BDE810400DF0C3BD5388128829
:1073F0009A420ED20023012200934FF0FF310A4B34
:1074000012F0BDFA00B1FEE723880133238002B0F9
:1074100010BD002BFBD00022044B1A7002B0BDE857
:10742000104012F0BABA00BFDD730000944800208B
:1074300030B585B00446084603A91546FFF738FE67
:1074400040B90123044ACDE9000303992B462046A5
:107450000DF0DFFA05B030BD5D74000038B50546AB
:107460000C4619B9BDE838400DF083BD4B880A8839
:107470009A420CD2FFF73AFE224601462846FFF711
:10748000D7FF00B1FEE723880133238038BD002BEE
:10749000FCD00022024B1A70BDE83840FFF7A0BDB7
:1074A0009548002020220021014811F0F5BA00BFC4
:1074B000083700202DE9F04116460C4600252148EA
:1074C000FFF78EFDA419204B45EB0506C3E90046E6
:1074D0000DF000FB01221D4B241A66F100069442B8
:1074E0001A7076F1000303DABDE8F0410DF041BDFA
:1074F000FFF7FCFDA04275EB06031ADAFFF7F6FD75
:107500008046FFF7F3FD2B4602463146204603F046
:107510008FFC0F4F424678802B46204631463D80F7
:1075200003F086FC074811463A46FFF781FF38B161
:10753000FEE72A4621460348FFF77AFF00B1FEE73F
:10754000BDE8F08108370020D014002095480020C5
:107550008E47002008B50348FFF742FD0022024B8A
:107560001A7008BD083700209548002070B50DF04E
:107570008EF8054612F035FB044608490B68086092
:107580008342074B284682BF1A6801321A601E6880
:107590000DF081F82046314670BD00BFEC3600206A
:1075A000E836002073B50C46154600261E4812F03A
:1075B000F4F964191D4B46EB0605C3E9004512F0CA
:1075C00010FB201A4FF00104194B65F10001A04295
:1075D0001C7071F1000304DA02B0BDE870400DF0D8
:1075E000C8BC4FF0FF33834276EB010310DA4FF053
:1075F000FF32002303F01CFC0E4B114658801E8006
:107600002246009308480C4B12F0B9F948B1FEE746
:1076100001462246084B0448009612F0B0F900B12A
:10762000FEE702B070BD00BFF0360020C814002095
:10763000944800208A470020DD73000008B5034805
:1076400012F0ABF90022024B1A7008BDF036002090
:10765000944800202DE9F04104460DF023F8224B18
:1076600005461B78214E2BB93378EBB9BDE8F041C4
:107670000DF01EB81E4BD3E900870DF02BFA002346
:107680004045BB4103DA337873B92846EEE720461C
:10769000FFF760FF367846B928460DF009F8204616
:1076A000BDE8F04102F04CBA0026124BD3E9008746
:1076B00012F097FA00234045BB410EDB2046FFF74E
:1076C000BDFF28460CF0F4FF16B1204602F038FA50
:1076D0002046BDE8F04102F057BA28460CF0E8FF1A
:1076E000002EDCD1BDE8F0819548002094480020B0
:1076F000D0140020C814002008B5FEF709FE034B83
:107700001860BDE808400DF00EB800BF2837002013
:10771000BFF34F8F0549064BCA6802F4E06213437A
:10772000CB60BFF34F8F00BFFDE700BF00ED00E06F
:107730000400FA050E4B1B68D9070FD45A060FD464
:1077400013F0180F0ED199070ED49A060ED440F2FA
:107750008472134214BF0620072070470020704730
:1077600002207047082070470120704703207047AF
:107770002837002010B501F02DFE044601F030FE40
:1077800021460246104802F02DF901F01DFE044684
:1077900001F034FE214602460C4802F023F901F0C4
:1077A00019FE012340F2A172834013420AD0002047
:1077B00001F018FD002001F02BFCBDE81040002076
:1077C00001F0DABB10BD00BFB3A70100C9A70100DB
:1077D0000E4B10B51C68A0235C4308B90DF089F965
:1077E0000B4B1B68B3FBF4F204FB1233B0FBF4F257
:1077F00004FB12002344181AB0FBF4F304FB13003B
:10780000A023B0FBF3F080B210BD00BF30370020E2
:107810002C3700202DE9F04104460D460DF0CFFC39
:10782000002857D020460DF0CFFC002852D094F805
:10783000237017F010074DD1FF2D00D1FEE7204631
:107840000DF098FCA8B120460DF0CFFC06460028AC
:1078500044D03C22224B02FB05335B785A1E9042F7
:107860000DD083420AD00133984235D00820BDE8BC
:10787000F0813C221A4B02FB05335E7801274FF062
:107880003C080C2318FB053303EB0713144F3B4450
:10789000236194F82330DB0716D420460DF06AFCF0
:1078A00028B108FB05F3FA18FE545368936031467B
:1078B00020460DF0A7FC3C2303FB057779682046A2
:1078C0004B1C7B600DF0A0FC0649204601EBC50176
:1078D0000DF0A1FA0020CAE70227D0E70120C6E791
:1078E00034370020BC48002010B5084C206812F046
:1078F00040F8012804D001220021206812F03BF852
:107900002068BDE8104005F009BE00BF74370020B4
:1079100038B504460CF0C6FE044B1D680CF0C8FEDA
:107920002C4214BF0120002038BD00BF703700205A
:1079300008B50220FFF7ECFF20B1034B1B68187855
:10794000C0F3401008BD00BFE814002010B5064B7E
:1079500002201B681C88FFF7DBFF20B104F007043E
:10796000E31E5842584110BDE814002038B50D46BA
:1079700004460CF097FE064B1A682DB114431C60A8
:10798000BDE838400CF094BE22EA0404F7E700BFDB
:107990007037002010B50CF085FE084B084A1B78A4
:1079A00012789A4211BF0024064B1C7884F001041F
:1079B0000CF07EFE04F0010010BD00BFA7480020BF
:1079C000A6480020A848002073B50646244B254D44
:1079D00018689B880090ADF8043033680C4628681E
:1079E000BBB1972112F089F9024600B1FEE7316878
:1079F000286806F05DF83379834200D0FEE7012263
:107A00000E23114628688DF8003012F0A8F920B135
:107A1000FEE706F01DFB00B1FEE7032228681146D1
:107A200012F08DF97F2C18D0286812F049F8FF2841
:107A300008D104EB840464006946286812F042F817
:107A400028B1FEE7286806F049F80446F4E7214625
:107A5000286812F04CF800B1FEE702B070BD00BF1C
:107A600010A901007437002008B5054B00EB800019
:107A70004100186812F03BF800B1FEE708BD00BFF6
:107A80007437002008B5FFF753FF00B9FEE7082060
:107A9000FFF73EFF00B9FEE701214FF48060FFF7DA
:107AA00065FF00210220FFF761FF00210820FFF79A
:107AB0005DFF044B186805F031FD0022024B1A707F
:107AC00008BD00BF74370020A94800202DE9F0430D
:107AD000164601220D461C4BDFF880801B4F1C4CC4
:107AE00018700021D8F8000085B03A7011F043FFFB
:107AF0002279EBB29A4225D862799A4222D3DFF8F2
:107B00006090D9F80030A34205D07F212046FFF7CE
:107B10005BFFC9F80040FF238DF804300D4B32465F
:107B2000CDE902362946D8F8000001AB05F06AFD20
:107B300028B17F22084B01201A7002233B7005B048
:107B4000BDE8F0830720FAE7C5490020C7490020B7
:107B50007C37002020A10700C64900207437002090
:107B60007837002010B504460220FFF7D1FEC0B1DF
:107B7000B4F5007F4FF0010110D12046FFF7F6FE6B
:107B800000211020FFF7F2FE0A200021FFF7EEFE91
:107B9000BDE81040034B186805F0C0BC4FF480509E
:107BA000F0E710BD7437002007B50D4B0DF106014D
:107BB000186811F02BFF0B4BBDF8061093F900204D
:107BC000094B7F2A0B4413F90B0C05D17F2808BF02
:107BD000002003B05DF804FB9042A8BF1046F8E710
:107BE00074370020AB480020AC4800202DE9F04F4E
:107BF0001446A20205461F46E5B040F1CD80354B44
:107C00000BA9186811F0CCFFBDF82E30022B40F202
:107C1000C380272B0AD92723BDF83020ADF82E309A
:107C2000262A82BFADF8303000230E930BA924A87A
:107C30000DF063F99DF82E60002E00F0AD800DF17F
:107C400091031093731EADF844300DF168090DF2E5
:107C5000111310A8C9F800300DF0A5FADFF88480E0
:107C6000002800F06F8108A910A80DF08BFA98F891
:107C700000605EB19DF8286046B1022E23D100203D
:107C800008A900F0E7FFC643C6F3C036124A1349FD
:107C900092F90020097807AB08A801F091FDDFF800
:107CA00048A0804610B3DAF8000010B10C4801F08B
:107CB000DDFD834642460A4807A901F0EFFD58441E
:107CC0005FFA80F819E0BDF82010002000F04CFFAA
:107CD000D9E700BF74370020C4480020C548002001
:107CE00096480020C449002030370020DAF80030E0
:107CF0001BB1BC4801F0BAFD804643463146B94A43
:107D0000CDF8009010A801F097FD002844D1DAF8D2
:107D10000030A3B10CF0EDFEBDF84430BDF82E20CC
:107D20005B0103F5F073A3EB42131844BAF800802B
:107D3000FFF74EFD4146024648460DF03EFA4846E2
:107D40000DF03DFA20B100214846FFF763FD18BB56
:107D50000BA80DF0C4F8F8B9DDE90D83BDF83020AB
:107D60004846002A08BF98460DF029FA28B198F82D
:107D7000003043F0040388F800302EB198F800304A
:107D800063F07F0388F8003099F80420284644A95E
:107D90008DF8102112F006F8E30104F0807240F132
:107DA0003F810220FFF7B4FD68B100211020FFF7EA
:107DB000DDFDFFF7BDFD0646002800F0258101210D
:107DC0000820FFF7D3FD2020FFF7A2FD04F40053A5
:107DD000002800F0368123B101214FF40040FFF765
:107DE000C5FD14F4404F0AD000212020FFF7BEFD4E
:107DF00000214FF40040FFF7B9FDFFF775FD26079E
:107E000040F18C81284611F0D2FE774EDFF8ECA1CC
:107E1000014624AA3068DAF800B011F0BDFE8146B0
:107E2000002800F0DB819DF890303068072B40F08F
:107E3000D581494644AA11F0B6FE002840F0CE8113
:107E4000BDF8928008F101039BB20493269B049A2B
:107E50001B78934240F0C281A8F103037B2B00F210
:107E6000BD8124A80DF03BF8002840F0B781BDF893
:107E70009430002B40F0F280279B1B7803939DF8F1
:107E80001D31002B40F0EC80584B1B78002B40F04C
:107E9000A581DFF86CB19BF80020D3B20F2A0593BF
:107EA00000F29C818C200C22514910FB0320DFF84A
:107EB00054A109785044002900F08C8124A90DF0C8
:107EC0001CF84946306811F074FE9DF8161100291F
:107ED00000F0848108F10208306844A9ADF81481EB
:107EE00011F063FE002840F079819BF80010414BAF
:107EF000013101F00F018BF800109BF800101B7886
:107F00003A4A591A4B424B4113708C23059A03FB92
:107F100002FB049A0AEB0B030AF80B20BDF824219C
:107F200018715A70BDF81E2152BA5A80449A9A604C
:107F3000039B13F0200800F0568101210420FFF775
:107F400015FDEBE0012E98F8003018D103B3284658
:107F500044A911F024FF034600283AD19DF81831B6
:107F6000032B2BD09DF81831022B7FF415AF002086
:107F7000BDF8101100F0F8FD002824DA0CE7002B02
:107F8000E5D19DF8913003F00703012B3FF404AFD6
:107F9000284611F002FF10BB0BA80CF0A0FF002830
:107FA0007FF4FAAEDDE90D32BDF83010002908BFCC
:107FB00013461A7862F07F021A70EDE644A900F0C9
:107FC00049FE0028CEDB284611F0E7FE03460028D4
:107FD000E2D0022B05D108480DF065F9DCE6022855
:107FE000F9D0FEE79648002074370020A84800200A
:107FF000AA480020A6480020E9A70100101500208B
:10800000A748002018380020A74B186805F086FA0A
:1080100001214FF48070FFF7A9FC31460220D0E621
:1080200007F002031A4304D04FF40070FFF79AFDE3
:10803000C9E604F0A8421A433FF4C5AE4FF480509D
:10804000F4E7002B7FF4DBAE07F0200213433FF48C
:10805000D6AE4FF40060FFF785FDD0E6269B0CE717
:10806000039B03F00703022B40F0B880584624A975
:108070000CF043FF049B49463068AAF8043011F025
:1080800098FDFFF755FC002842D0884B9BF8022052
:108090001B689B789A423BD19DF816313068002BC3
:1080A00000F09C8008F1020844A9ADF8148111F099
:1080B0007CFD002840F09280FFF758FA0023449A94
:1080C0009DF81DC1824228BF01F1FF319DF91EE1DB
:1080D0009DF81F019A18BCF1000F61D0CAE9042174
:1080E0008AF81DE08AF81E008AF8083001214FF452
:1080F0008070FFF73BFC00210A20FFF737FCFFF7F9
:1081000025FC28B1039BD80642BF0122684B1A7098
:10811000FFF71CFC10B9306805F000FAA2014FF01F
:1081200000080CD5624E41460420FFF71FFC33784F
:108130002BB15D4B186805F0F1F986F8008014F05A
:10814000084F03D000210420FFF710FCA30003D543
:1081500000210420FFF70AFCA60705D50820FFF739
:10816000D7FB08B1FFF78EFC78060DD50820FFF786
:10817000CFFB08B1FFF786FC0420FFF7C9FB18B15D
:1081800000210420FFF7F2FBF90561D5284611F024
:10819000DCFB06460220FFF7BBFB052E2FD1FEE7D6
:1081A000444BDFF82081C3E90421DA7F83F81DE026
:1081B00022F00302DA77404A88F800E01178DFF80D
:1081C00008E1926898778EF8000083F808C0197764
:1081D0009A618BE7049B042B7FF470AE49463068AC
:1081E00011F0E7FC9AE7DFF8C89099F80030002B0F
:1081F00094D0306805F092F989F800808EE7442E1B
:1082000016D006F0EF03242B12D0032E0AD0022E34
:108210000DD0942E1CD17F22284B1A700222284B9D
:108220001A7015E020B9264B1B78012BF2E778B1C4
:108230000420FFF76DFB18B100210420FFF796FB27
:108240000220FFF765FB18B14FF40070FFF78AFCBE
:10825000BA0506D500222846114605F055FC00B1A6
:10826000FEE7E30713D5284611F0A9FC044628468B
:1082700005F054F914F5007F11D0002CB8BF033479
:1082800044F3870402220D4B1C700D4B1A7017F03B
:10829000C00F06D165B0BDE8F04F0CF06ABE7F2478
:1082A000F0E765B0BDE8F08F74370020E8140020D7
:1082B000A94800203815002034370020C649002086
:1082C000C7490020C4480020C548002030B50C46EE
:1082D000154A85B01068516802AB002C03C304F145
:1082E000FF350DD1FEF790F82B46CDE9000102AA2B
:1082F000073412F8011D03F8011FA342F9D110E061
:108300002A460A4B0A4913F801098B4202F8010F69
:10831000F9D1082220460DEB020110F093FB002852
:10832000E0D005B030BD00BF08A801000900E00F93
:108330000100E00F002310B50C461A4607480CF068
:10834000B5FF2146002000F003FC054B002221462A
:10835000186811F0D4FC00B1FEE710BD11A80100AF
:108360007437002030B5134B87B001F1080414F8BE
:10837000012D8C4203F8012BF9D100256379A279F4
:10838000E17905952078049060780390A0780290B8
:10839000E07801902079009007480CF087FF074BA8
:1083A0002A462146186811F0B6FC00B1FEE707B076
:1083B00030BD00BFBC4800202AA80100743700204F
:1083C00010B50C46002206480CF070FF054B002249
:1083D0002146186811F099FC00B1FEE710BD00BFFE
:1083E0004CA801007437002008B50120FFF790FA6F
:1083F00010B902480CF05AFF002008BD62A8010025
:1084000008B50120FFF784FA10B102480CF04EFFC6
:10841000002008BD7DA8010010B50620FFF778FAFE
:10842000044650B906480CF041FF20202146FFF7D2
:108430009DFAFFF759FA204610BD0520FCE700BF62
:1084400062A8010070B50F4C0D462379834217D8FE
:108450006379834214D30C4E3368A3420CD00B4B88
:1084600001221868002111F086FA29462046FFF7FC
:10847000ABFA3460002070BD0846FFF7F5FAF9E763
:108480000720F8E77C370020783700207437002079
:1084900030B5022085B00D46FFF73AFA48BB164BBF
:1084A0001B78012B25D0FFF77FFB01462846FFF7FD
:1084B000C9FF044670B9FF23CDE901008DF80430EF
:1084C0000E4B03902946186801AA05F081F804466E
:1084D00018B10124204605B030BD09480CF0E6FE75
:1084E00021462020FFF742FA064B9D71064B9D71F5
:1084F000F0E70D24EEE700BFC749002074370020E5
:108500009BA801003815002010150020F0B589B097
:108510000D4617461E46FFF747FB01462846FFF764
:1085200091FF044600BBFF23CDE901008DF8043024
:1085300040F2011303908DF814008DF81E000D48D1
:10854000ADF81C302946006801AB04AA04970696D2
:1085500005F04CF8044650B901212020FFF706FA37
:10856000054B9D71054B9D71204609B0F0BD01245E
:10857000FAE700BF743700203815002010150020DE
:10858000F0B5022089B0FFF7C3F900B9FEE72F4D1F
:108590002B6803B9FEE71020FFF7BAF92B682C4EC1
:1085A0009B880DF10B018DF80B30012330681A46C2
:1085B00011F0ECFA9DF80B202968023A00230968B3
:1085C00092B2306811F0E2FA224B05AC93E8070052
:1085D00084E807002A6813681F78D369C7F3401737
:1085E00013BB1020FFF794F9B0B12A681A4B92F828
:1085F0002010997019490978D970917900943A46F8
:10860000306804F0C7FF28B14FF48050FFF7AAFA92
:108610000CF0AFFC09B0F0BD296823463A468979D1
:10862000306804F0A9FFEEE791690B44A03B039387
:108630000023ADF810300A4B9179009301943A462B
:10864000306803AB04F0B4FFDDE700BF143800204E
:108650007437002018A90100E0100020C512002086
:10866000D41000202DE9F0410C460746FFF79CFA94
:108670000146A079FFF7E6FE054600285ED10220FC
:10868000FFF746F900B1FEE72E4B9C4200D0FEE713
:1086900022682D4B9A4200D0FEE729464FF4F8504D
:1086A0002A4EFFF763F994F823103460284C102009
:1086B000C1F38001FFF75AF9236863B1D6F800804F
:1086C000D8F81C303BB911F08CFA40F6B832336858
:1086D000C8F81800DA61D4F80080B8F1000F10D0A3
:1086E000346894F82330DB070BD4D4E9060318442C
:1086F000A030FFF76DF81FFA88F1024620460CF013
:108700005CFD3068017AFFF785F80BF0CBFF04467B
:1087100000212020FFF72AF901210220FFF726F986
:10872000FFF72EFF20460BF0C3FF4FF48050FFF7FA
:10873000EFF818B1384603490EF01BF82846BDE89B
:10874000F08100BFE8140020C64800201438002043
:108750003037002000487047E814002038B5154B2A
:1087600002209D79FFF7D4F808B17F2038BD124C64
:108770002378002BF9D110222946FFF7A7F900280A
:10878000F3D111F02EFA05462378012B05D111F013
:1087900028FA431BB3F5967FF6D32378022B0ABF42
:1087A000064B7F2018784FF0000308BF40B22370BB
:1087B000DCE700BF38150020C7490020C64900206B
:1087C000014B1878704700BFAA48002008B5044B39
:1087D0001970044B186811F0A4FA00B1FEE708BD47
:1087E000AA48002074370020014B1970704700BF61
:1087F000C449002010B50C4649B1064B186805F075
:108800006DF90A2390FBF3F02070002010BD0720C3
:10881000FCE700BF7437002008B5074B1970FFF75D
:10882000C3F9064B00EB8000410009B2186811F053
:108830005EF900B1FEE708BDAB48002074370020A8
:1088400008B5A1F10B030F2B09D8064B0B4403F815
:108850000B2CFFF7A9F9FFF707F9002008BD072047
:10886000FCE700BFAC48002021B1034B00201B787F
:108870000B70704707207047C5120020014B002085
:1088800019707047C5120020054B1B782BB94FF4A7
:108890007A7301205A43FFF719B90520704700BFCA
:1088A000C7490020F0B5DDE905540BB105B104B9A5
:1088B000FEE7134903F110074A7001F10C02164656
:1088C00018685968083303C6BB423246F7D12B46B5
:1088D0000C4D03F110062A4618685968083303C284
:1088E000B3421546F7D12346074C03F11005224643
:1088F00018685968083303C2AB421446F7D1F0BD7B
:1089000034370020503700206037002010B50C4667
:108910000BF0C8FE024B5C60BDE810400BF0C8BE17
:108920003437002010B50C460BF0BCFE044B5A68DF
:10893000A24238BF5C60BDE810400BF0B9BE00BF7A
:1089400034370020014B0020196070473037002079
:10895000014B1960704700BF2C3700202DE9F74FFD
:108960000746DFF8D881684EFFF714F800283DD09D
:108970004FF4F850FEF7CCFF08B34FF48070FEF7C9
:10898000C7FF0546002800F09780604B00211B6858
:108990004FF480701B785E4D13F0200F08BF002548
:1089A0000024FEF7E3FF5B4B2A4619680023384694
:1089B000C1E9063323460DF0E3FE0CF0DAFA564B1C
:1089C0001B78012B40F09D80544B1A78022A40F00E
:1089D000988000221A70524B3846197849B20DF02F
:1089E000DBFE03B0BDE8F04F0CF0C3BAFEF7D2FFD8
:1089F00000285FD198F800508C230C2213FB05222D
:108A0000B15C9019C1F3800B4FEAD11A01F07B01E0
:108A1000B15403FB05F17218424C92F801C0715C2D
:108A200084F806C092F804900192A1802060FEF7BD
:108A30009DFD8C23019A03FB0565926895F903302F
:108A40008242394828BF01F1FF310370A878002520
:108A5000AA18C4E904213C22A07734486377037044
:108A6000E37F84F8089002FB09F94AEA4B0A23F0F5
:108A700003034AEA030A2E4B2A4903EB090213F8BF
:108A800009303846237793682A46A36184F81FA0EB
:108A90000DF068FE0BF006FE98F80030013303F08D
:108AA0000F0388F80030234B1D700BF001FE0CF013
:108AB00060FA59E710259FE74FF40070FEF728FF92
:108AC000044658B129464FF40070FEF74FFF0F24BB
:108AD000214619480CF0EDFB002564E74FF4806057
:108AE000FEF716FF014630B121464FF48060FEF7D5
:108AF0003DFF0E24ECE74FF48050FEF737FF0B24C8
:108B0000E6E703B0BDE8F08F18380020E814002035
:108B10001015002014380020C5490020C749002046
:108B2000C649002038150020C4480020C548002050
:108B300034370020A8480020B8A80100A64800202B
:108B4000024B0146186811F035B900BF7437002098
:108B5000034B0A461980034800210CF0A7BB00BF55
:108B6000E247002024A9010000200A4B1B88194479
:108B7000094B89B21A888A4201D19A783AB90130F0
:108B80000A2803F10403F5D14FF0FF30704700B21B
:108B9000704700BFE2470020BA47002038B50D46B5
:108BA0000024114B13F82420CAB101340A2CF9D146
:108BB0004FF0FF342B46224600210C480CF079FB85
:108BC000A3B2092B0DD80A4A00201288094B15447C
:108BD000012223F8245003EB84039A7038BD24B299
:108BE000E8E70320FAE700BFBC47002042A90100E4
:108BF000E2470020BA47002038B500200D46FFF7B5
:108C0000B3FF044602462B46084800210CF051FBF6
:108C1000A3B2092B9BBF0020054B0A2003EB840263
:108C20009CBF907023F8240038BD00BF6FA90100DD
:108C3000BA47002008B5002104480CF03AFBBDE813
:108C400008402822002102480FF026BF9EA90100FB
:108C5000BA47002048880A880D4B024400201B8830
:108C600013448A8812FA83F3CA8812FA83F3094AF2
:108C70009BB21188994201D1917839B901300A2803
:108C800002F10402F5D14FF0FF30704700B2704797
:108C9000E24700209247002038B50D460024154BCE
:108CA00013F8242012B301340A2CF9D14FF0FF3409
:108CB0002B462246002110480CF0FBFAA3B2092BE8
:108CC00016D80E4B69881A882B8800200B441A444A
:108CD000AB88E98813FA82F2094B11FA82F223F881
:108CE0002420012203EB84039A7038BD24B2DFE70D
:108CF0000320FAE794470020C0A90100E2470020C2
:108D00009247002010B50020FFF7A4FF044602465A
:108D1000002108480CF0CDFAA3B2092B9BBF00201C
:108D2000054B0A2003EB84029CBF907023F82400BB
:108D300010BD00BFE7A901009247002008B500213F
:108D400004480CF0B6FABDE8084028220021024889
:108D50000FF0A2BE07AA01009247002010B50446FA
:108D6000054B186000F082F82046FFF7F7FD20461B
:108D7000BDE81040FEF76EBCD84000202DE9F0475A
:108D80001D461A4EDFF86C901746B6F88020B6F8EC
:108D9000823099F800A09BB2A3EB0A032B4492B255
:108DA00003F07F039A42804616D0B6F88200A5EB06
:108DB0000A0207EB0A0116FA80F00FF0CDFD00233E
:108DC000B6F8824089F80030A4B2A4EB0A042C441F
:108DD00004F07F04A6F882402A4639464046044BF8
:108DE000FCF7ACFBBDE8F0470CF0C3B8E44700204B
:108DF0007D8D0000C94900200122024B1A700CF041
:108E0000B8B800BFC849002070B500240A4B0B4E0B
:108E10000B4DA3F880408022A3F8824009493346D5
:108E20002868FCF78BFB3346802207492868FCF74B
:108E300085FB204670BD00BFE44700207D8D00000B
:108E4000141200204A4A0020CA4900200A4601465E
:108E5000044808B50068044BFCF70AFC003818BF4A
:108E6000012008BD14120020F98D00002DE9FF41FA
:108E70000BF018FC07462B48DFF8B480006803AB02
:108E800002AA01A90BF06CFB98F80060029D264C29
:108E9000AE4213D2B4F882000199AA1B314414FAED
:108EA00080F00FF059FDB4F8823088F8005015FAC0
:108EB00083F39B1B03F07F03A4F8823038460BF04A
:108EC000F7FBB4F88250B4F88030ADB29BB29D424B
:108ED0000DD2B4F88000B4F8801014FA80F0C1F11B
:108EE000800189B20CF0B5F80023A4F88030B4F802
:108EF00080309BB29D420BD0B4F88000B4F8801053
:108F000014FA80F0691A89B20CF0A3F8A4F8805022
:108F1000064B1A781AB100221A700CF09CF804B0B3
:108F2000BDE8F08114120020E4470020C849002069
:108F3000C9490020034B1A780AB901221A70014866
:108F4000704700BF6015002008B500F0E1F9084A3D
:108F5000536A43F470235362EFF308834FF0CD312B
:108F6000044A043B934200D208BD43F80419F9E7D0
:108F700000ED00E0000000202DE9F04F0024C3B018
:108F8000FC22214603A8029426460FF085FDDFF857
:108F900070B01A4FDFF86C80DFF86C90DFF86CA0CF
:108FA0009BF8003033B914B102A800F01BFD43B0A8
:108FB000BDE8F08F06F00302032A14BF43464B4678
:108FC000019357F8043B02A8009352465B464FF4C6
:108FD0008071204402F0C6FA1BF8013B002BFBD144
:108FE000721C12F00305D6B203D02044C5B22C4641
:108FF000D6E702A800F0F6FCF9E700BF0010002059
:109000002CAF010027AA010098C001002AAA010084
:1090100040F60522604B2DE9F0411B8893420ED8A3
:10902000B3F5206F0DD840F20252934217D040F2B0
:10903000017293421DD040F2015293420AD0BDE822
:10904000F081A3F60223554C032B1AD8DFE803F076
:109050003058869F5248BDE8F04100F0C3BC5148EB
:1090600000F0C0FC4D4B196C4F48BDE8F04100F0DA
:10907000B9BC4A4B4D48D3E92412BDE8F04100F099
:10908000B1BC4B4800F0AEFC94F868309E0702D5A6
:10909000484800F0A7FC94F86B305D0602D54648BE
:1090A00000F0A0FC94F96B30002BC8DA4348D2E7FB
:1090B000434800F097FC94F86430980703D0216C83
:1090C000394800F08FFC94F96430002B03DA216FEB
:1090D0003C4800F087FC002501263B4FDFF8F48078
:1090E000626E06FA05F3134206D057F825100B7886
:1090F00013B1404600F076FC0135082DF0D19EE713
:10910000324800F06FFC216C274800F06BFC94F8AB
:109110006530590702D52E4800F064FC94F965309B
:10912000002B03DA216F274800F05CFC0825264E4F
:10913000284F636EEB40DA0706D556F825100B78FA
:1091400013B1384600F04EFC0135102DF1D194F8E2
:109150006430002B7FF473AF1F487CE71F4800F09A
:1091600041FC216C104800F03DFC1025164E194FB3
:10917000636EEB40DB0706D556F825100B7813B16C
:10918000384600F02FFC01351A2DF1D157E714486D
:1091900000F028FC216C67E76848002000100020E0
:1091A00039AA010076AA0100A6AA0100C0AA0100FE
:1091B000DBAA0100F3AA01002DAB010060AB0100A6
:1091C0009CAB0100C1AB010034B70100E6AB01006C
:1091D000FDAB0100DEAB010043AC010073AC01004C
:1091E0008CAC01002DE9F74F3B4CD4E90D32580708
:1091F00048BF0026D4E9121B4EBFB046D4F85080B9
:109200008B46D4F83CA05DBF344E9246DFF8F49014
:10921000DFF8F49013F0080F314B324918BF1946AC
:10922000B6EB08071FBF64237D0803FB0B55B5FB96
:10923000F7F50CBF3D46ADB243464A462A48CDE954
:10924000006ABFB200F0CEFB4B462A462748009783
:109250001FFA8BF100F0C6FBB24501D8C24503D21C
:109260004946234800F0BEFBD4E9173213432DD002
:10927000204800F0B7FB002501261F4FDFF88C8047
:10928000E26D06FA05F3134206D057F825100B7865
:1092900013B1404600F0A6FB0135202DF0D100258A
:1092A0000126164FDFF86480226E06FA05F313429A
:1092B00006D057F825100B7813B1404600F092FB0A
:1092C00001351D2DF0D103B0BDE8F08F0C4803B07F
:1092D000BDE8F04F00F086BB001000200010002019
:1092E000BAAC0100C1AC0100C9AC0100FAAC01008C
:1092F00033AD010051AD010040B60100C0B6010020
:1093000084AD0100B5AC0100ADAC010080AD010041
:1093100010B5FCF7FDFF04460BF005FAE30721D476
:1093200001221046114600FA01F3234002F1010226
:109330001AD0214B33F811302049062B19D040F2B6
:109340000722934212D14FF000524FF20F0054887F
:1093500084420BD11088984208D14CF23C335380A0
:10936000088010BD0021E4E7102ADBD1134A1380E6
:1093700012E04FF000534FF20F025888904218D17C
:109380001B88B3F5406F28BF4FF4C0630B804CF2CD
:109390003C324FF000535A80084B1A8840F2017358
:1093A0009A4201BF064B074AD2E90001C3E9000116
:1093B000D7E74FF4C063E9E70CAF0100684800202D
:1093C000DC40002090100020014B1888704700BF3F
:1093D00068480020014B1888000A70476848002040
:1093E000044B05481B881A0AB3F5406F38BF00EBE1
:1093F0008200704768480020DCAE0100044B1888EA
:10940000044B020A53F82230C0B203EB80007047CD
:1094100068480020ACAE010010B504460BF03EF9E0
:109420004FF000534FF20F021C805A80BFF35F8F42
:10943000BFF34F8F0549064BCA6802F4E06213433D
:10944000CB60BFF34F8F00BFFDE700BF00ED00E032
:109450000400FA056D4A2DE9F0416D4B55686D4CDD
:109460005D65516A99656C49D1F80002D865D1F8FB
:109470000412586B1966916A10F0040F5966D16A8C
:109480004FF000009966116BD966516B1967D26B6A
:10949000D8645A67D3E90E1218BF11465F4A914249
:1094A0001A655DD301F12000A04259D88869C5F33F
:1094B00008051864CE69062D5E6455D1584DA84242
:1094C00052D3584DA8424FD205884DF6426085428E
:1094D0004AD11868C3F890005868C3F8940040F265
:1094E0000170A242154604D22E680432B6F1CD3F77
:1094F000F7D00022C3E91E22C3E92022C3E92222B9
:10950000641BDFF81CC1434DDFF818E19C648D42F9
:109510002DD8D3E91EC7D3E92065D3E922414FF006
:10952000000E013AD2B2FF2A3CD1BEF1000F05D0A5
:10953000C3E91EC7C3E92065C3E92241B3F854302B
:10954000C3F308030C2B3BD8022B54D9DA1E092A8B
:1095500051D8DFE802F03157404350505050504D41
:109560000021C3E910112D494FF42060B9E755F8E7
:10957000044D6445CBD37445C9D2E607C7D5002650
:10958000294F57F8048FA045C1D00136062EF8D1D7
:1095900032B1013AD2B202F11E0643F82640B6E7D4
:1095A0000522F8E7E0464FF0010EBC4637462E464E
:1095B00025460C464146B4E740F60120BDE8F0815F
:1095C0003B2B18D1194B9B6913F0020F40F2025349
:1095D00018BF1846F2E740F60320EFE740F20172A9
:1095E00040F60423B0F5206F14BF10461846E5E797
:1095F00040F60520E2E740F60722013B4B2B98BFDF
:109600001046DBE740F60220D8E700BF00ED00E09F
:10961000001000200010002000E100E00000002009
:109620003441000060A60100741000200080015A3F
:1096300010B50A46044619B1024B00211B68984731
:1096400010BD00BFEC10002037B50B4D0C462B7839
:109650007BB100230A460193014601AB281D0BF0A4
:10966000B8F920B9019BA34218BF6FF0930003B073
:1096700030BD6FF08800FAE7E440002008B500F044
:1096800033F8064B5A7812B10022C3E90122BDE833
:1096900008400C210148FFF7CBBF00BFE440002089
:1096A00070B50C4D2B7873B90BF08AF9044668B984
:1096B00002230126C5E90100AE706B7000F00CF8C2
:1096C000044618B92E700024204670BDFFF7D6FF5F
:1096D000FAE700BFE44000200122024B002083F89B
:1096E000DC207047F040002070B5094C002526466C
:1096F000042120460BF07DFC013520460BF05FFC79
:10970000052D04F12C04F3D1002386F8DC3070BD64
:10971000F040002010B50446FFF776FB2046BDE878
:109720001040014901F050BA4750010038B5084DCA
:10973000D5E8AF3F13F0010408D128460BF006FC32
:1097400020B1044B28461C600BF005FC014838BDD5
:10975000D0410020D441002070B51348D0E8AF4F6D
:1097600014F0010418D10BF0F1FBA8B10F4D2E46F7
:1097700046F8044B30191022002110340FF08CF9F8
:10978000A02CF7D10B220A4B013A194603F1100322
:1097900004D105480BF0DFFB044870BD286843F88E
:1097A000100C2960F0E700BFD8410020DC41002008
:1097B000E0410020014B1870704700BFCA4A0020EA
:1097C0002DE9F041884615461E460BF09DFC0746E4
:1097D00050B35EB30379990748BF86F80080C3F39E
:1097E0004004037948BF01245A070ED5114B29467E
:1097F00093F900000CF0E3FF822302B2C2EB0222D5
:10980000B2FBF3F232559CB901243B791B0708D512
:1098100082228235C5EB0525B5FBF2F5631C355573
:10982000DCB22046BDE8F0810446FAE73446F8E7AA
:109830000224F6E7CA4A002070B5049D0C46014692
:1098400000B12DB9AB21064B064A074801F0B6FD21
:109850000493284613462246BDE870400CF06ABDCA
:109860009CB701005CB801000EB8010008B528B92A
:10987000E421074B074A084801F0A0FD038823F4C0
:10988000FF4343F45063038004230370062008BDA4
:10989000C0B80100D1B801000EB80100131D70B5A9
:1098A000DBB2144628B9F2210D4B0E4A0E4801F0E6
:1098B00085FD068803F07F0326F4FF4606800370CB
:1098C0009B238370B823C370EA2303710023437181
:1098D00011B106300FF040F8A01DC0B270BD00BF3E
:1098E000C0B8010003B901000EB80100004870477C
:1098F00050B901000148FEF763BF00BF68150020A2
:1099000008B5836923B10348FEF760FF002008BD56
:109910000D20FCE768150020836913B10248FEF7AB
:109920007BBD0D20704700BF6815002008B5836916
:1099300023B10348FEF758FF002008BD0D20FCE7C7
:1099400068150020836913B10248FFF727B90D207D
:10995000704700BF68150020836907B553B168469A
:1099600001220CF0A6FD69460348FFF795F903B004
:109970005DF804FB0D20FAE768150020836913B138
:109980000248FFF739B90D20704700BF6815002065
:10999000836907B553B1684601220CF08AFD694618
:1099A0000348FFF7AFF903B05DF804FB0D20FAE7B9
:1099B0006815002008B5836923B10348FFF73AF919
:1099C000002008BD0D20FCE76815002008B583695C
:1099D00023B10348FFF7B2F9002008BD0D20FCE7D2
:1099E000681500200FB407B504AB53F8042B012110
:1099F0000448019300F008F803B05DF804EB04B0EC
:109A0000704700BF7EB90100F0B50C460546ABB00B
:109A1000164604A9962202A81F460BF0D8FC134B49
:109A200013491A5D02A80BF0FAFC0E2128460BF030
:109A3000C3FC104B0E22034400930F492B4602A88F
:109A40000E4D0BF0ECFC3A46314602A80BF0C6FC7A
:109A500029460B4A02A80BF0E2FC2A4610212046B8
:109A600004AB00F0BBFF2BB0F0BD00BF96B9010006
:109A700087B901009CB901008DB9010081AD0100D9
:109A800098C0010037B54FF6FF720C4D04462B8885
:109A9000934200D1FEE753B904210DEB01000BF016
:109AA0002AF800B1FEE7019905480BF05EFC20465C
:109AB0002B8801332B8003B030BD00BF6A480020E3
:109AC00080420020034B1B8803B9FEE702480BF0DD
:109AD00056BC00BF6A48002080420020036823B9BA
